{
  "transactions": [
    {
      "hash": "0xb9b261d38a076386f313134c8fa8a10bba84caa69ed06b573318f4086ccc7e17",
      "transactionType": "CREATE",
      "contractName": "MockSafe",
      "contractAddress": "0xad9db96e69fb951a235c3522e2ded58391d12067",
      "function": null,
      "arguments": null,
      "transaction": {
        "from": "0x490ce9212cf474a5a73936a8d25b5ef46751a58f",
        "gas": "0x53dec",
        "value": "0x0",
        "input": "0x6080806040523461002c57335f525f60205260405f20600160ff1982541617905561036790816100318239f35b5f80fdfe60806040908082526004361015610014575f80fd5b5f3560e01c908163022914a71461026a575080632f54bf6e1461022f578063468721a7146101b8578063a0e67e2b146101075763be6002c214610055575f80fd5b3461010357806003193601126101035761006d6102a3565b60243567ffffffffffffffff8111610103575f9182610091819336906004016102b9565b91908287519384928337810182815203925af16100ac6102e7565b908251928391151582526020816020840152835180928401525f935b8285106100ea575050606092505f838284010152601f80199101168101030190f35b84810182015186860160600152938101938593506100c8565b5f80fd5b5034610103575f3660031901126101035780519080820182811067ffffffffffffffff8211176101a457815260019160018152602090818101918036843781511561019057909391933385528351938285019183865251809252840194915f5b8281106101745785870386f35b83516001600160a01b0316875295810195928101928401610167565b634e487b7160e01b5f52603260045260245ffd5b634e487b7160e01b5f52604160045260245ffd5b5034610103576080366003190112610103576101d26102a3565b9060443567ffffffffffffffff8111610103576101f39036906004016102b9565b9060643560ff81160361010357602093825f939284938651928392833781018481520391602435905af1906102266102e7565b50519015158152f35b5034610103576020366003190112610103576020906001600160a01b036102546102a3565b165f525f825260ff815f20541690519015158152f35b9050346101035760203660031901126101035760209160ff906001600160a01b036102936102a3565b165f525f84525f20541615158152f35b600435906001600160a01b038216820361010357565b9181601f840112156101035782359167ffffffffffffffff8311610103576020838186019501011161010357565b3d1561032c5767ffffffffffffffff903d8281116101a45760405192601f8201601f19908116603f01168401908111848210176101a45760405282523d5f602084013e565b60609056fea26469706673582212203d7752efe2cc7835b71fb7b59ff247128b7704ebd98cd2ddc03370531c1da1c064736f6c63430008180033",
        "nonce": "0x34",
        "chainId": "0xaa36a7"
      },
      "additionalContracts": [],
      "isFixedGasLimit": false
    },
    {
      "hash": "0xdf9d0868ee540fd4820ed1e998d28716bd66be9266a373b6a93d46d82739e5a9",
      "transactionType": "CREATE",
      "contractName": "MockAavePool",
      "contractAddress": "0x39cc1108cee56b0bea6a335642bafa110e74270e",
      "function": null,
      "arguments": null,
      "transaction": {
        "from": "0x490ce9212cf474a5a73936a8d25b5ef46751a58f",
        "gas": "0x352f1",
        "value": "0x0",
        "input": "0x6080806040523461002b57671bc16d674ec800005f55652d79883d200060015561014390816100308239f35b5f80fdfe6080806040526004361015610012575f80fd5b5f3560e01c908163077d6f92146100f4575080633fabc6b7146100db5780638ff5e86e146100be578063bf92857c1461006f5763c2a9dbfc14610053575f80fd5b3461006b57602036600319011261006b576004355f55005b5f80fd5b3461006b57602036600319011261006b576004356001600160a01b0381160361006b5760c06001545f546040519182525f60208301525f60408301525f60608301525f608083015260a0820152f35b3461006b575f36600319011261006b576020600154604051908152f35b3461006b57602036600319011261006b57600435600155005b3461006b575f36600319011261006b576020905f548152f3fea264697066735822122023f0b9996b9b83855658b3553672ef7700bd12d7d8913dadb35f8b581f05bc5264736f6c63430008180033",
        "nonce": "0x35",
        "chainId": "0xaa36a7"
      },
      "additionalContracts": [],
      "isFixedGasLimit": false
    },
    {
      "hash": "0x211e6fc2b16d40993053342b581879764a4a650b37a768af3a1ab7b4d5324246",
      "transactionType": "CREATE",
      "contractName": "MockOracle",
      "contractAddress": "0xd550f4d38eb7c205058c58867dc319a00469d465",
      "function": null,
      "arguments": null,
      "transaction": {
        "from": "0x490ce9212cf474a5a73936a8d25b5ef46751a58f",
        "gas": "0x1b0ab",
        "value": "0x0",
        "input": "0x60808060405234601457609390816100198239f35b5f80fdfe60808060405260043610156011575f80fd5b5f3560e01c63feaf968c146023575f80fd5b346059575f36600319011260595780600160a0925265082f79cd900060208201525f604082015242606082015260016080820152f35b5f80fdfea2646970667358221220da0f0f636178f8f13559e514409dd8b7bab91dbbb71f23eeac38a7067f98ddf764736f6c63430008180033",
        "nonce": "0x36",
        "chainId": "0xaa36a7"
      },
      "additionalContracts": [],
      "isFixedGasLimit": false
    },
    {
      "hash": "0xf56d9e156fe34fcc3e547e629fab3c138ca9f2ebbe46e80409d79b21b38eb7a7",
      "transactionType": "CREATE",
      "contractName": "MockTarget",
      "contractAddress": "0xc5d4397049ae8bfd7f59b37ee31169d4b8d18dfc",
      "function": null,
      "arguments": null,
      "transaction": {
        "from": "0x490ce9212cf474a5a73936a8d25b5ef46751a58f",
        "gas": "0x1b3e6",
        "value": "0x0",
        "input": "0x60808060405234601457609690816100198239f35b5f80fdfe60808060405260043610156011575f80fd5b5f3560e01c9081633fa4f245146049575063a6b206bf14602f575f80fd5b3460455760203660031901126045576004355f55005b5f80fd5b346045575f3660031901126045576020905f548152f3fea264697066735822122078ca340ffe76e375a3d62935fa89c900ffc4169f9004e7aca3e30bd325ede9c264736f6c63430008180033",
        "nonce": "0x37",
        "chainId": "0xaa36a7"
      },
      "additionalContracts": [],
      "isFixedGasLimit": false
    },
    {
      "hash": "0x1bf7b5c7ecef4e7fdb26c0c8c902c96783bdbe14dd97e1907ce95df5a19ddb66",
      "transactionType": "CREATE",
      "contractName": "LimitedSignerModule",
      "contractAddress": "0x40f7b06433f27b9c9c24fd5d60f2816f9344e04e",
      "function": null,
      "arguments": [
        "0xaD9dB96e69FB951A235c3522e2dED58391D12067",
        "0x39Cc1108cEe56B0bea6a335642bAFa110e74270e",
        "0xd550F4d38eb7C205058C58867dc319a00469d465"
      ],
      "transaction": {
        "from": "0x490ce9212cf474a5a73936a8d25b5ef46751a58f",
        "gas": "0x36445a",
        "value": "0x0",
        "input": "0x60e034620001ec57601f62002c9538819003918201601f19168301916001600160401b03831184841017620001f057808492606094604052833981010312620001ec576200004d8162000204565b620000696040620000616020850162000204565b930162000204565b6412a05f20006001908155601460029081556003556402e7ddb000600455671582b4c9a9db0000600555610190600681905561012c6007556023600855640e875470006009819055600a5560c8600b55600c55610708600d556001600160a01b0392831660805292821660a0521660c0524260155563573ade8160e01b5f52600f6020527f4068ae0277183cd30c37dcda96d3f854d14aa80af89026ff2257629bf4a5ebcd805460ff19169091179055604051612a7b90816200021a82396080518181816103db015281816105020152818161054d015281816106f6015281816107ad01528181610a5401528181610aa101528181610af101528181610c9401528181610cfe01528181610dc201528181610e0f01528181610e7501528181610faa0152818161113f015281816115f701528181611652015281816116bb01528181611737015281816117eb01528181611a60015281816127080152612971015260a0518181816110550152818161273a01526129a3015260c051816104bc0152f35b5f80fd5b634e487b7160e01b5f52604160045260245ffd5b51906001600160a01b0382168203620001ec5756fe60806040526004361015610011575f80fd5b5f3560e01c806301b08d58146103c4578063042641d8146103bf578063069786ea146103ba57806309eaed95146103b55780630f668d7d146103b0578063186f0354146103ab5780631afb6062146103a65780631f3a0e41146103a15780632085d2481461039c57806320ecc78e1461039757806323cdc3f114610392578063286daaf61461038d5780632ed1a7f614610388578063342aa8b5146103835780633431a1211461037e5780633ba8396e146103795780633de39c11146103745780633fba79571461036f57806340a0b2bc1461036a57806343f772fd146103655780634db930a614610360578063588c84aa1461035b57806359a342d61461035657806365f88c2c146103515780636bf6191f1461034c5780636c9ff2f21461034757806379768c09146103425780637ce52f4c1461033d5780637f055afe146103385780637f2671c114610333578063830e57d41461032e5780638c1b6820146103295780638d700254146103245780639091c3e11461031f57806395229d8f1461031a57806395851a65146103155780639d96628214610310578063a03e4bc31461030b578063a79b2e7a14610306578063a9a4cad514610301578063ada14698146102fc578063aec478cc146102f7578063b4c9191e146102f2578063b8fe8d5f146102ed578063bba013aa146102e8578063c081bd42146102e3578063c4aa7395146102de578063c86d3825146102d9578063cef0ed23146102d4578063cf37b9d3146102cf578063d127fd80146102ca578063d1b9e853146102c5578063d2fa635e146102c0578063da35c664146102bb578063dd2d57b6146102b6578063dfd1d57f146102b1578063e1b4264c146102ac578063f83f4432146102a75763fbd1b695146102a2575f80fd5b611845565b6117a8565b61178b565b6116ff565b6116a5565b611688565b61163b565b6115bf565b611523565b6112da565b6112bd565b6112a1565b611284565b611267565b611216565b6111d9565b6111bc565b61119f565b611129565b6110bf565b611084565b611040565b611007565b610f94565b610e45565b610df8565b610dab565b610d8e565b610d51565b610d34565b610ce7565b610c65565b610c37565b610ad7565b610a8a565b610a3d565b610a20565b61092b565b61090e565b6108f1565b6108d4565b610896565b61084b565b61080e565b6107f1565b610775565b6106dc565b6106bf565b61066e565b610651565b61062f565b61060e565b61057c565b610538565b6104eb565b6104a7565b610479565b610441565b3461041157602036600319011261041157610409337f00000000000000000000000000000000000000000000000000000000000000006001600160a01b031614611861565b600435600555005b5f80fd5b600435906001600160a01b038216820361041157565b602435906001600160a01b038216820361041157565b34610411576020366003190112610411576001600160a01b03610462610415565b165f526014602052602060405f2054604051908152f35b34610411575f3660031901126104115760606016546017546018549060405192835260208301526040820152f35b34610411575f366003190112610411576040517f00000000000000000000000000000000000000000000000000000000000000006001600160a01b03168152602090f35b3461041157602036600319011261041157610530337f00000000000000000000000000000000000000000000000000000000000000006001600160a01b031614611861565b600435600a55005b34610411575f366003190112610411576040517f00000000000000000000000000000000000000000000000000000000000000006001600160a01b03168152602090f35b3461041157602036600319011261041157335f52601260205260ff60405f20541680156105fb575b156105b6576105b46004356118df565b005b60405162461bcd60e51b815260206004820152601a60248201527f4c534d3a20756e617574686f72697a6564206578656375746f720000000000006044820152606490fd5b50601360205260ff60405f2054166105a4565b34610411575f36600319011261041157602060ff5f54166040519015158152f35b34610411575f36600319011261041157602060ff600e54166040519015158152f35b34610411575f366003190112610411576020600254604051908152f35b3461041157604036600319011261041157602060ff6106b361068e61042b565b6004355f52601a8452600660405f20019060018060a01b03165f5260205260405f2090565b54166040519015158152f35b34610411575f366003190112610411576020600354604051908152f35b3461041157602036600319011261041157600435610724337f00000000000000000000000000000000000000000000000000000000000000006001600160a01b031614611861565b603c811061073157600d55005b60405162461bcd60e51b81526020600482015260126024820152711314d34e88151513081d1bdbc81cda1bdc9d60721b6044820152606490fd5b8015150361041157565b34610411576040366003190112610411576105b4610791610415565b6024359061079e8261076b565b6001600160a01b03906107d4337f0000000000000000000000000000000000000000000000000000000000000000841614611861565b165f52601360205260405f209060ff801983541691151516179055565b34610411575f366003190112610411576020600954604051908152f35b34610411576020366003190112610411576001600160a01b0361082f610415565b165f526013602052602060ff60405f2054166040519015158152f35b34610411575f366003190112610411576020600154604051908152f35b600435906001600160e01b03198216820361041157565b602435906001600160e01b03198216820361041157565b34610411576020366003190112610411576001600160e01b03196108b8610868565b165f52600f602052602060ff60405f2054166040519015158152f35b34610411575f366003190112610411576020600654604051908152f35b34610411575f366003190112610411576020600a54604051908152f35b34610411575f366003190112610411576020601754604051908152f35b3461041157602036600319011261041157600435335f52601360205261095760ff60405f205416611f64565b61096560ff5f54161561189e565b805f52601a602052600560405f2061098f600160ff600384015416610989816110a1565b14611b98565b6109eb6109de600683016109cc6109c76109c36109bc33859060018060a01b03165f5260205260405f2090565b5460ff1690565b1590565b611fa8565b335f9081526020919091526040902090565b805460ff19166001179055565b016109f68154611ebf565b905533907f99b919f7184d77ef9a6a66ffb9a952fa03e6a8ead078d3fdb3eccc88c91b6fc55f80a3005b34610411575f366003190112610411576020600d54604051908152f35b3461041157602036600319011261041157610a82337f00000000000000000000000000000000000000000000000000000000000000006001600160a01b031614611861565b600435600755005b3461041157602036600319011261041157610acf337f00000000000000000000000000000000000000000000000000000000000000006001600160a01b031614611861565b600435600955005b3461041157602036600319011261041157600435610b1f337f00000000000000000000000000000000000000000000000000000000000000006001600160a01b031614611861565b8015610b2a57600355005b60405162461bcd60e51b815260206004820152601a60248201527f4c534d3a207468726573686f6c64206d757374206265203e20300000000000006044820152606490fd5b9181601f840112156104115782359167ffffffffffffffff8311610411576020838186019501011161041157565b906060600319830112610411576004356001600160a01b038116810361041157916024359067ffffffffffffffff821161041157610bdd91600401610b6f565b909160443590565b9092919215158152602092604060208301528051908160408401525f5b828110610c2357505060609293505f838284010152601f8019910116010190565b818101860151848201606001528501610c02565b3461041157610c51610c4836610b9d565b92919091612169565b90610c6160405192839283610be5565b0390f35b34610411576040366003190112610411576105b4610c81610868565b60243590610c8e8261076b565b610cc2337f00000000000000000000000000000000000000000000000000000000000000006001600160a01b031614611861565b63ffffffff60e01b165f52600f60205260405f209060ff801983541691151516179055565b3461041157602036600319011261041157610d2c337f00000000000000000000000000000000000000000000000000000000000000006001600160a01b031614611861565b600435600255005b34610411575f366003190112610411576020601554604051908152f35b34610411576020366003190112610411576001600160a01b03610d72610415565b165f526012602052602060ff60405f2054166040519015158152f35b34610411575f366003190112610411576020600754604051908152f35b3461041157602036600319011261041157610df0337f00000000000000000000000000000000000000000000000000000000000000006001600160a01b031614611861565b600435600c55005b3461041157602036600319011261041157610e3d337f00000000000000000000000000000000000000000000000000000000000000006001600160a01b031614611861565b600480359055005b3461041157604036600319011261041157610e5e610415565b610e6661042b565b6001600160a01b0390610e9c337f0000000000000000000000000000000000000000000000000000000000000000841614611861565b81831692835f52601360205260ff60405f20541615610f4f57610efd610f0791610ee4610edf6109c36109bc8760018060a01b03165f52601360205260405f2090565b612285565b6001600160a01b03165f90815260136020526040902090565b805460ff19169055565b6001600160a01b0381165f908152601360205260409020610f27906109de565b16907fd4a61de18604c407fb07c52ae3590ed3d74c6e4aac1fc46fba16b931bc633c955f80a3005b60405162461bcd60e51b815260206004820152601b60248201527f4c534d3a206f6c6420626f74206e6f7420617574686f72697a656400000000006044820152606490fd5b34610411575f36600319011261041157610fd8337f00000000000000000000000000000000000000000000000000000000000000006001600160a01b031614611861565b60ff195f54165f55337f0c372fb54f53ddff4a3975aa89406b4352381788a06682c6484c548d5a8d60525f80a2005b34610411576020366003190112610411576001600160e01b0319611029610868565b165f526019602052602060405f2054604051908152f35b34610411575f366003190112610411576040517f00000000000000000000000000000000000000000000000000000000000000006001600160a01b03168152602090f35b34610411575f366003190112610411576020601854604051908152f35b600411156110ab57565b634e487b7160e01b5f52602160045260245ffd5b34610411576020366003190112610411576004355f52601a60205260405f2060018060a01b03815416600182015491600581015460ff60036004840154930154169360405193845260208401526040830152606082015260048210156110ab5760a0916080820152f35b34610411575f3660031901126104115761116d337f00000000000000000000000000000000000000000000000000000000000000006001600160a01b031614611861565b600160ff195f5416175f55337fc56c8fd71c15046bc4921ca227d339cad8ffb288152fcd2b445f42b23e5783865f80a2005b34610411575f366003190112610411576020600c54604051908152f35b34610411575f366003190112610411576020601654604051908152f35b34610411576020366003190112610411576001600160a01b036111fa610415565b165f526010602052602060ff60405f2054166040519015158152f35b3461041157604036600319011261041157602060ff6106b3611236610415565b61123e61087f565b9060018060a01b03165f526011845260405f209063ffffffff60e01b165f5260205260405f2090565b34610411575f366003190112610411576020600454604051908152f35b34610411575f366003190112610411576020600854604051908152f35b3461041157602036600319011261041157610c516004356122d1565b34610411575f366003190112610411576020600b54604051908152f35b34610411576112e836610b9d565b91929092335f52601260205260ff60405f205416156114de577f22af8fa2d68797229f0e00f00ca6952d1b2ea7d4f72eae55c821a54cd65b069b6114a3610c61956114219561133b60ff5f54161561189e565b6001600160a01b0386165f9081526010602052604090206113649061135f906109bc565b612336565b61146061137a6113748488612065565b90612073565b926113ba6113b56109bc8661139f8c60018060a01b03165f52601160205260405f2090565b9063ffffffff60e01b165f5260205260405f2090565b612382565b6113c483156123ca565b6001600160a01b0388165f908152601460205260409020883f90546114b6575b50601b549661142689604051611416816114088d60208301958b8a8a42938a612458565b03601f198101835282611e32565b5190209a8b99611ebf565b601b55565b611438885f52601a60205260405f2090565b80546001600160a01b0319166001600160a01b038b16178155936001850155600284016124e0565b60038101805460ff191660011790554260049190910155604080516001600160a01b0390961686526001600160e01b031990911660208601523394918291820190565b0390a36040519081529081906020820190565b6001600160a01b0389165f908152601460205260409020546114d89114612411565b5f6113e4565b60405162461bcd60e51b815260206004820152601a60248201527f4c534d3a20756e617574686f72697a65642070726f706f7365720000000000006044820152606490fd5b34610411576040806003193601126104115760243567ffffffffffffffff8111610411576115767fdf87962b862dad1e46658c17c4fd3b22de509e3d8d8a199a4f68abf4162c5596913690600401610b6f565b9190335f52601360205261158f60ff855f205416611f64565b8284519160208352816020840152858301375f818401850152339360043593601f01601f191682018290030190a3005b34610411576040366003190112610411576105b46115db610415565b602435906115e88261076b565b6001600160a01b039061161e337f0000000000000000000000000000000000000000000000000000000000000000841614611861565b165f52601260205260405f209060ff801983541691151516179055565b3461041157602036600319011261041157611680337f00000000000000000000000000000000000000000000000000000000000000006001600160a01b031614611861565b600435600155005b34610411575f366003190112610411576020601b54604051908152f35b34610411575f366003190112610411576116e9337f00000000000000000000000000000000000000000000000000000000000000006001600160a01b031614611861565b5f19600155600160ff19600e541617600e555f80f35b346104115760603660031901126104115761177b61171b610415565b602435906117288261076b565b6001600160a01b039061175e337f0000000000000000000000000000000000000000000000000000000000000000841614611861565b165f52601060205260405f209060ff801983541691151516179055565b601460205260405f206044359055005b34610411575f366003190112610411576020600554604051908152f35b34610411576060366003190112610411576105b46117c4610415565b6118346117cf61087f565b604435926117dc8461076b565b6001600160a01b0390611812337f0000000000000000000000000000000000000000000000000000000000000000841614611861565b165f52601160205260405f209063ffffffff60e01b165f5260205260405f2090565b9060ff801983541691151516179055565b3461041157602036600319011261041157610c516004356126d6565b1561186857565b60405162461bcd60e51b815260206004820152600e60248201526d4c534d3a206f6e6c79205361666560901b6044820152606490fd5b156118a557565b60405162461bcd60e51b81526020600482015260126024820152711314d34e881b5bd91d5b19481ada5b1b195960721b6044820152606490fd5b6118ed60ff5f54161561189e565b6118ff815f52601a60205260405f2090565b600381019161191d6001611914855460ff1690565b610989816110a1565b6119396119316004840154600d5490611beb565b421115611bfd565b61194b60058301546003541115611c41565b611953612833565b61196260165460025411611c8c565b6119706001543a1115611cd8565b60028201926119fb602061198386611e54565b0151916119b86119ae6119a78563ffffffff60e01b165f52601960205260405f2090565b5442611e6f565b6007541115611e7c565b6119c96119c487611e54565b6128d3565b6119ea6109c36109bc8563ffffffff60e01b165f52600f60205260405f2090565b611b8357805460ff19166002179055565b611a0e611a09601654611ebf565b601655565b6001600160e01b0319165f90815260196020526040902042905581546020906001600160a01b0316600184015460405163468721a760e01b81529586928392611a5b929160048501611ee5565b03815f7f00000000000000000000000000000000000000000000000000000000000000006001600160a01b03165af1918215611b7e57611b03935f93611b27575b5082611ae37f6ee1fdcf1f77ab4d1e7507d8d42cf626f791ae3733ec11c1ef2df944d6780c6892611acb61295a565b600e5460ff16611b05575b546001600160a01b031690565b604080516001600160a01b039290921682529115156020820152a2611f20565b565b611b136412a05f2000600155565b611b2260ff19600e5416600e55565b611ad6565b611ae3935090611b6f7f6ee1fdcf1f77ab4d1e7507d8d42cf626f791ae3733ec11c1ef2df944d6780c689260203d602011611b77575b611b678183611e32565b810190611ecd565b935090611a9c565b503d611b5d565b611f15565b611b8b61295a565b805460ff19166002179055565b15611b9f57565b60405162461bcd60e51b815260206004820152601060248201526f4c534d3a206e6f742070656e64696e6760801b6044820152606490fd5b634e487b7160e01b5f52601160045260245ffd5b91908201809211611bf857565b611bd7565b15611c0457565b60405162461bcd60e51b81526020600482015260156024820152741314d34e881c1c9bdc1bdcd85b08195e1c1a5c9959605a1b6044820152606490fd5b15611c4857565b606460405162461bcd60e51b815260206004820152602060248201527f4c534d3a20696e73756666696369656e7420626f74207369676e6174757265736044820152fd5b15611c9357565b60405162461bcd60e51b815260206004820152601b60248201527f4c534d3a206461696c79207478206c696d6974207265616368656400000000006044820152606490fd5b15611cdf57565b60405162461bcd60e51b8152602060048201526011602482015270098a69a7440cec2e640e8dede40d0d2ced607b1b6044820152606490fd5b90600182811c92168015611d46575b6020831014611d3257565b634e487b7160e01b5f52602260045260245ffd5b91607f1691611d27565b80545f9392611d5e82611d18565b918282526020936001916001811690815f14611dc25750600114611d84575b5050505050565b90939495505f92919252835f2092845f945b838610611dae57505050500101905f80808080611d7d565b805485870183015294019385908201611d96565b60ff19168685015250505090151560051b010191505f80808080611d7d565b634e487b7160e01b5f52604160045260245ffd5b6020810190811067ffffffffffffffff821117611e1157604052565b611de1565b6040810190811067ffffffffffffffff821117611e1157604052565b90601f8019910116810190811067ffffffffffffffff821117611e1157604052565b90611b03611e689260405193848092611d50565b0383611e32565b91908203918211611bf857565b15611e8357565b60405162461bcd60e51b81526020600482015260146024820152734c534d3a20636f6f6c646f776e2061637469766560601b6044820152606490fd5b5f198114611bf85760010190565b908160209103126104115751611ee28161076b565b90565b9392611f10905f9360609360018060a01b031687526020870152608060408701526080860190611d50565b930152565b6040513d5f823e3d90fd5b15611f2757565b60405162461bcd60e51b81526020600482015260156024820152741314d34e88195e1958dd5d1a5bdb8819985a5b1959605a1b6044820152606490fd5b15611f6b57565b60405162461bcd60e51b81526020600482015260156024820152741314d34e881d5b985d5d1a1bdc9a5e995908189bdd605a1b6044820152606490fd5b15611faf57565b60405162461bcd60e51b81526020600482015260156024820152741314d34e88185b1c9958591e48185c1c1c9bdd9959605a1b6044820152606490fd5b60405190611ff982611df5565b5f8252565b6040519061200b82611e16565b60128252711314d34e881b5bd91d5b19481ada5b1b195960721b6020830152565b6040519061203982611e16565b601b82527f4c534d3a20746172676574206e6f742077686974656c697374656400000000006020830152565b906004116104115790600490565b6001600160e01b0319903581811693926004811061209057505050565b60040360031b82901b16169150565b604051906120ac82611e16565b60198252781314d34e88199d5b98dd1a5bdb881b9bdd08185b1b1bddd959603a1b6020830152565b604051906120e182611e16565b60188252772629a69d103737903930bb9022aa24103a3930b739b332b960411b6020830152565b6040519061211582611e16565b6011825270098a69a7440cec2e640e8dede40d0d2ced607b1b6020830152565b6040519061214282611e16565b60188252771314d34e881d185c99d95d0818dbd9194818da185b99d95960421b6020830152565b92916121765f5460ff1690565b612277576001600160a01b0384165f90815260106020526040902061219e906109c3906109bc565b612269576109bc6121b86113746109c3936121d495612065565b6001600160a01b0386165f90815260116020526040902061139f565b61225d57612252576001543a11612247576001600160a01b0381165f908152601460205260409020813f905415159182612224575b505061221a57600190611ee2611fec565b5f90611ee2612135565b6001600160a01b03165f9081526014602052604090209091505414155f80612209565b505f90611ee2612108565b505f90611ee26120d4565b50505f90611ee261209f565b505050505f90611ee261202c565b505050505f90611ee2611ffe565b1561228c57565b60405162461bcd60e51b815260206004820152601f60248201527f4c534d3a206e657720626f7420616c726561647920617574686f72697a6564006044820152606490fd5b601854908101809111611bf857600a54106122fb576001906040516122f581611df5565b5f815290565b5f9060405161230981611e16565b601f81527f4c534d3a206461696c79207377617020766f6c756d6520657863656564656400602082015290565b1561233d57565b60405162461bcd60e51b815260206004820152601b60248201527f4c534d3a20746172676574206e6f742077686974656c697374656400000000006044820152606490fd5b1561238957565b60405162461bcd60e51b81526020600482015260196024820152781314d34e88199d5b98dd1a5bdb881b9bdd08185b1b1bddd959603a1b6044820152606490fd5b156123d157565b60405162461bcd60e51b81526020600482015260186024820152772629a69d103737903930bb9022aa24103a3930b739b332b960411b6044820152606490fd5b1561241857565b60405162461bcd60e51b81526020600482015260186024820152771314d34e881d185c99d95d0818dbd9194818da185b99d95960421b6044820152606490fd5b909280926074979596946bffffffffffffffffffffffff199060601b168352601483013701926014840152603483015260548201520190565b601f821161249e57505050565b5f5260205f20906020601f840160051c830193106124d6575b601f0160051c01905b8181106124cb575050565b5f81556001016124c0565b90915081906124b7565b90929167ffffffffffffffff8111611e1157612506816125008454611d18565b84612491565b5f601f82116001146125445781906125359394955f92612539575b50508160011b915f199060031b1c19161790565b9055565b013590505f80612521565b601f19821694612557845f5260205f2090565b915f5b878110612591575083600195969710612578575b505050811b019055565b01355f19600384901b60f8161c191690555f808061256e565b9092602060018192868601358155019401910161255a565b90607d820291808304607d1490151715611bf857565b81810292918115918404141715611bf857565b604051906125df82611e16565b601b82527f4c534d3a20626f72726f7720616d6f756e7420657863656564656400000000006020830152565b91908260c09103126104115781519160208101519160408201519160608101519160a0608083015192015190565b6040519061264682611e16565b601b82527f4c534d3a20626f72726f7720657863656564732054564c2063617000000000006020830152565b6040519061267f82611e16565b600f82526e4c534d3a20484620746f6f206c6f7760881b6020830152565b604051906126aa82611e16565b601a82527f4c534d3a206461696c7920766f6c756d652065786365656465640000000000006020830152565b6126eb6126e46004546125a9565b6064900490565b811161282857604051632fe4a15f60e21b81526001600160a01b037f00000000000000000000000000000000000000000000000000000000000000008116600483015260c090829060249082907f0000000000000000000000000000000000000000000000000000000000000000165afa908115611b7e575f905f926127e8575b5061277d61278591600c54906125bf565b612710900490565b82116127dc575f1981141590816127d0575b506127c5576127a890601754611beb565b600954106127bb57600190611ee2611fec565b5f90611ee261269d565b505f90611ee2612672565b9050600554115f612797565b50505f90611ee2612639565b61277d925061278591506128139060c03d60c011612821575b61280b8183611e32565b81019061260b565b96949350505050915061276c565b503d612801565b505f90611ee26125d2565b601554620151808101809111611bf85742101561284c57565b426015555f6016555f6017555f6018557f450d69a307fe727c4d16c9aa74048123badcca4d9a3070218b80892e26ee3a166020604051428152a1565b1561288f57565b606460405162461bcd60e51b815260206004820152602060248201527f4c534d3a20756e617574686f72697a656420746f6b656e207472616e736665726044820152fd5b60048151106129315760208101516001600160e01b03191663a9059cbb60e01b81036129235750602401516001600160a01b03165f908152601060205260409020611b039060ff905b5416612888565b6323b872dd60e01b14612934575b50565b604401516001600160a01b03165f908152601060205260409020611b039060ff9061291c565b604051632fe4a15f60e21b81526001600160a01b037f00000000000000000000000000000000000000000000000000000000000000008116600483015260c090829060249082907f0000000000000000000000000000000000000000000000000000000000000000165afa908115611b7e575f91612a20575b50600181016129df5750565b600554116129e957565b60405162461bcd60e51b815260206004820152600f60248201526e4c534d3a20484620746f6f206c6f7760881b6044820152606490fd5b612a39915060c03d60c0116128215761280b8183611e32565b9450505050505f6129d356fea2646970667358221220a1c9a988a12725e707534631a90ef79b3e03d0fd4392954caf207187d45ec51a64736f6c63430008180033000000000000000000000000ad9db96e69fb951a235c3522e2ded58391d1206700000000000000000000000039cc1108cee56b0bea6a335642bafa110e74270e000000000000000000000000d550f4d38eb7c205058c58867dc319a00469d465",
        "nonce": "0x38",
        "chainId": "0xaa36a7"
      },
      "additionalContracts": [],
      "isFixedGasLimit": false
    },
    {
      "hash": "0x4eb1cfd36167de09a79b6808d15bc14117783e20935ae59e7e9eea2bde8b6a0b",
      "transactionType": "CALL",
      "contractName": "MockSafe",
      "contractAddress": "0xad9db96e69fb951a235c3522e2ded58391d12067",
      "function": "exec(address,bytes)",
      "arguments": [
        "0x40f7b06433f27B9C9C24fD5d60F2816F9344e04E",
        "0xd1b9e853000000000000000000000000490ce9212cf474a5a73936a8d25b5ef46751a58f0000000000000000000000000000000000000000000000000000000000000001"
      ],
      "transaction": {
        "from": "0x490ce9212cf474a5a73936a8d25b5ef46751a58f",
        "to": "0xad9db96e69fb951a235c3522e2ded58391d12067",
        "gas": "0x11a68",
        "value": "0x0",
        "input": "0xbe6002c200000000000000000000000040f7b06433f27b9c9c24fd5d60f2816f9344e04e00000000000000000000000000000000000000000000000000000000000000400000000000000000000000000000000000000000000000000000000000000044d1b9e853000000000000000000000000490ce9212cf474a5a73936a8d25b5ef46751a58f000000000000000000000000000000000000000000000000000000000000000100000000000000000000000000000000000000000000000000000000",
        "nonce": "0x39",
        "chainId": "0xaa36a7"
      },
      "additionalContracts": [],
      "isFixedGasLimit": false
    },
    {
      "hash": "0xcdfb77a25cf35107e4b7006e9cfbfe6d43f8ed55a29c096a95a8401ada911690",
      "transactionType": "CALL",
      "contractName": "MockSafe",
      "contractAddress": "0xad9db96e69fb951a235c3522e2ded58391d12067",
      "function": "exec(address,bytes)",
      "arguments": [
        "0x40f7b06433f27B9C9C24fD5d60F2816F9344e04E",
        "0x342aa8b500000000000000000000000070997970c51812dc3a010c7d01b50e0d17dc79c80000000000000000000000000000000000000000000000000000000000000001"
      ],
      "transaction": {
        "from": "0x490ce9212cf474a5a73936a8d25b5ef46751a58f",
        "to": "0xad9db96e69fb951a235c3522e2ded58391d12067",
        "gas": "0x10635",
        "value": "0x0",
        "input": "0xbe6002c200000000000000000000000040f7b06433f27b9c9c24fd5d60f2816f9344e04e00000000000000000000000000000000000000000000000000000000000000400000000000000000000000000000000000000000000000000000000000000044342aa8b500000000000000000000000070997970c51812dc3a010c7d01b50e0d17dc79c8000000000000000000000000000000000000000000000000000000000000000100000000000000000000000000000000000000000000000000000000",
        "nonce": "0x3a",
        "chainId": "0xaa36a7"
      },
      "additionalContracts": [],
      "isFixedGasLimit": false
    },
    {
      "hash": "0xd7b72eaab20d35ef3457afb4b57743fdebd3072808a804eb4179219017bc15d5",
      "transactionType": "CALL",
      "contractName": "MockSafe",
      "contractAddress": "0xad9db96e69fb951a235c3522e2ded58391d12067",
      "function": "exec(address,bytes)",
      "arguments": [
        "0x40f7b06433f27B9C9C24fD5d60F2816F9344e04E",
        "0x342aa8b50000000000000000000000003c44cdddb6a900fa2b585dd299e03d12fa4293bc0000000000000000000000000000000000000000000000000000000000000001"
      ],
      "transaction": {
        "from": "0x490ce9212cf474a5a73936a8d25b5ef46751a58f",
        "to": "0xad9db96e69fb951a235c3522e2ded58391d12067",
        "gas": "0x11590",
        "value": "0x0",
        "input": "0xbe6002c200000000000000000000000040f7b06433f27b9c9c24fd5d60f2816f9344e04e00000000000000000000000000000000000000000000000000000000000000400000000000000000000000000000000000000000000000000000000000000044342aa8b50000000000000000000000003c44cdddb6a900fa2b585dd299e03d12fa4293bc000000000000000000000000000000000000000000000000000000000000000100000000000000000000000000000000000000000000000000000000",
        "nonce": "0x3b",
        "chainId": "0xaa36a7"
      },
      "additionalContracts": [],
      "isFixedGasLimit": false
    },
    {
      "hash": "0x5af63ac1990aa3ed1513cfe1ba5beaf92502849fe5d036f8c4a6a08b597b3f7b",
      "transactionType": "CALL",
      "contractName": "MockSafe",
      "contractAddress": "0xad9db96e69fb951a235c3522e2ded58391d12067",
      "function": "exec(address,bytes)",
      "arguments": [
        "0x40f7b06433f27B9C9C24fD5d60F2816F9344e04E",
        "0x342aa8b500000000000000000000000090f79bf6eb2c4f870365e785982e1f101e93b9060000000000000000000000000000000000000000000000000000000000000001"
      ],
      "transaction": {
        "from": "0x490ce9212cf474a5a73936a8d25b5ef46751a58f",
        "to": "0xad9db96e69fb951a235c3522e2ded58391d12067",
        "gas": "0x10635",
        "value": "0x0",
        "input": "0xbe6002c200000000000000000000000040f7b06433f27b9c9c24fd5d60f2816f9344e04e00000000000000000000000000000000000000000000000000000000000000400000000000000000000000000000000000000000000000000000000000000044342aa8b500000000000000000000000090f79bf6eb2c4f870365e785982e1f101e93b906000000000000000000000000000000000000000000000000000000000000000100000000000000000000000000000000000000000000000000000000",
        "nonce": "0x3c",
        "chainId": "0xaa36a7"
      },
      "additionalContracts": [],
      "isFixedGasLimit": false
    },
    {
      "hash": "0x0a8e71fd02331aa96c8e46c5af47dfe87d550f9439b4e5c034ed924193ddadd8",
      "transactionType": "CALL",
      "contractName": "MockSafe",
      "contractAddress": "0xad9db96e69fb951a235c3522e2ded58391d12067",
      "function": "exec(address,bytes)",
      "arguments": [
        "0x40f7b06433f27B9C9C24fD5d60F2816F9344e04E",
        "0xdfd1d57f000000000000000000000000c5d4397049ae8bfd7f59b37ee31169d4b8d18dfc00000000000000000000000000000000000000000000000000000000000000010000000000000000000000000000000000000000000000000000000000000000"
      ],
      "transaction": {
        "from": "0x490ce9212cf474a5a73936a8d25b5ef46751a58f",
        "to": "0xad9db96e69fb951a235c3522e2ded58391d12067",
        "gas": "0x1289e",
        "value": "0x0",
        "input": "0xbe6002c200000000000000000000000040f7b06433f27b9c9c24fd5d60f2816f9344e04e00000000000000000000000000000000000000000000000000000000000000400000000000000000000000000000000000000000000000000000000000000064dfd1d57f000000000000000000000000c5d4397049ae8bfd7f59b37ee31169d4b8d18dfc0000000000000000000000000000000000000000000000000000000000000001000000000000000000000000000000000000000000000000000000000000000000000000000000000000000000000000000000000000000000000000",
        "nonce": "0x3d",
        "chainId": "0xaa36a7"
      },
      "additionalContracts": [],
      "isFixedGasLimit": false
    },
    {
      "hash": "0xd5dfa7d2fc7e8cdd2e98dbf8e33a56d180fb1255d52f64868d385eb1de726f3c",
      "transactionType": "CALL",
      "contractName": "MockSafe",
      "contractAddress": "0xad9db96e69fb951a235c3522e2ded58391d12067",
      "function": "exec(address,bytes)",
      "arguments": [
        "0x40f7b06433f27B9C9C24fD5d60F2816F9344e04E",
        "0xf83f4432000000000000000000000000c5d4397049ae8bfd7f59b37ee31169d4b8d18dfca6b206bf000000000000000000000000000000000000000000000000000000000000000000000000000000000000000000000000000000000000000000000001"
      ],
      "transaction": {
        "from": "0x490ce9212cf474a5a73936a8d25b5ef46751a58f",
        "to": "0xad9db96e69fb951a235c3522e2ded58391d12067",
        "gas": "0x10d4c",
        "value": "0x0",
        "input": "0xbe6002c200000000000000000000000040f7b06433f27b9c9c24fd5d60f2816f9344e04e00000000000000000000000000000000000000000000000000000000000000400000000000000000000000000000000000000000000000000000000000000064f83f4432000000000000000000000000c5d4397049ae8bfd7f59b37ee31169d4b8d18dfca6b206bf00000000000000000000000000000000000000000000000000000000000000000000000000000000000000000000000000000000000000000000000100000000000000000000000000000000000000000000000000000000",
        "nonce": "0x3e",
        "chainId": "0xaa36a7"
      },
      "additionalContracts": [],
      "isFixedGasLimit": false
    }
  ],
  "receipts": [
    {
      "status": "0x1",
      "cumulativeGasUsed": "0x1259c76",
      "logs": [],
      "logsBloom": "0x00000000000000000000000000000000000000000000000000000000000000000000000000000000000000000000000000000000000000000000000000000000000000000000000000000000000000000000000000000000000000000000000000000000000000000000000000000000000000000000000000000000000000000000000000000000000000000000000000000000000000000000000000000000000000000000000000000000000000000000000000000000000000000000000000000000000000000000000000000000000000000000000000000000000000000000000000000000000000000000000000000000000000000000000000000000",
      "type": "0x2",
      "transactionHash": "0xb9b261d38a076386f313134c8fa8a10bba84caa69ed06b573318f4086ccc7e17",
      "transactionIndex": "0x5c",
      "blockHash": "0x1ed0dcc6ec36414c451ec7f08585c8990a5c89aa0de6472bb6b9ec73349edfcb",
      "blockNumber": "0x9df6b0",
      "gasUsed": "0x40840",
      "effectiveGasPrice": "0x103f90",
      "from": "0x490ce9212cf474a5a73936a8d25b5ef46751a58f",
      "to": null,
      "contractAddress": "0xad9db96e69fb951a235c3522e2ded58391d12067"
    },
    {
      "status": "0x1",
      "cumulativeGasUsed": "0x172a5c8",
      "logs": [],
      "logsBloom": "0x00000000000000000000000000000000000000000000000000000000000000000000000000000000000000000000000000000000000000000000000000000000000000000000000000000000000000000000000000000000000000000000000000000000000000000000000000000000000000000000000000000000000000000000000000000000000000000000000000000000000000000000000000000000000000000000000000000000000000000000000000000000000000000000000000000000000000000000000000000000000000000000000000000000000000000000000000000000000000000000000000000000000000000000000000000000",
      "type": "0x2",
      "transactionHash": "0xdf9d0868ee540fd4820ed1e998d28716bd66be9266a373b6a93d46d82739e5a9",
      "transactionIndex": "0x77",
      "blockHash": "0x1ed0dcc6ec36414c451ec7f08585c8990a5c89aa0de6472bb6b9ec73349edfcb",
      "blockNumber": "0x9df6b0",
      "gasUsed": "0x28e92",
      "effectiveGasPrice": "0x103f90",
      "from": "0x490ce9212cf474a5a73936a8d25b5ef46751a58f",
      "to": null,
      "contractAddress": "0x39cc1108cee56b0bea6a335642bafa110e74270e"
    },
    {
      "status": "0x1",
      "cumulativeGasUsed": "0x18fd141",
      "logs": [],
      "logsBloom": "0x00000000000000000000000000000000000000000000000000000000000000000000000000000000000000000000000000000000000000000000000000000000000000000000000000000000000000000000000000000000000000000000000000000000000000000000000000000000000000000000000000000000000000000000000000000000000000000000000000000000000000000000000000000000000000000000000000000000000000000000000000000000000000000000000000000000000000000000000000000000000000000000000000000000000000000000000000000000000000000000000000000000000000000000000000000000",
      "type": "0x2",
      "transactionHash": "0xf56d9e156fe34fcc3e547e629fab3c138ca9f2ebbe46e80409d79b21b38eb7a7",
      "transactionIndex": "0x87",
      "blockHash": "0x1ed0dcc6ec36414c451ec7f08585c8990a5c89aa0de6472bb6b9ec73349edfcb",
      "blockNumber": "0x9df6b0",
      "gasUsed": "0x14cd3",
      "effectiveGasPrice": "0x103f90",
      "from": "0x490ce9212cf474a5a73936a8d25b5ef46751a58f",
      "to": null,
      "contractAddress": "0xd550f4d38eb7c205058c58867dc319a00469d465"
    },
    {
      "status": "0x1",
      "cumulativeGasUsed": "0x1912090",
      "logs": [],
      "logsBloom": "0x00000000000000000000000000000000000000000000000000000000000000000000000000000000000000000000000000000000000000000000000000000000000000000000000000000000000000000000000000000000000000000000000000000000000000000000000000000000000000000000000000000000000000000000000000000000000000000000000000000000000000000000000000000000000000000000000000000000000000000000000000000000000000000000000000000000000000000000000000000000000000000000000000000000000000000000000000000000000000000000000000000000000000000000000000000000",
      "type": "0x2",
      "transactionHash": "0x211e6fc2b16d40993053342b581879764a4a650b37a768af3a1ab7b4d5324246",
      "transactionIndex": "0x88",
      "blockHash": "0x1ed0dcc6ec36414c451ec7f08585c8990a5c89aa0de6472bb6b9ec73349edfcb",
      "blockNumber": "0x9df6b0",
      "gasUsed": "0x14f4f",
      "effectiveGasPrice": "0x103f90",
      "from": "0x490ce9212cf474a5a73936a8d25b5ef46751a58f",
      "to": null,
      "contractAddress": "0xc5d4397049ae8bfd7f59b37ee31169d4b8d18dfc"
    },
    {
      "status": "0x1",
      "cumulativeGasUsed": "0x1badefd",
      "logs": [],
      "logsBloom": "0x00000000000000000000000000000000000000000000000000000000000000000000000000000000000000000000000000000000000000000000000000000000000000000000000000000000000000000000000000000000000000000000000000000000000000000000000000000000000000000000000000000000000000000000000000000000000000000000000000000000000000000000000000000000000000000000000000000000000000000000000000000000000000000000000000000000000000000000000000000000000000000000000000000000000000000000000000000000000000000000000000000000000000000000000000000000",
      "type": "0x2",
      "transactionHash": "0x5af63ac1990aa3ed1513cfe1ba5beaf92502849fe5d036f8c4a6a08b597b3f7b",
      "transactionIndex": "0x89",
      "blockHash": "0x1ed0dcc6ec36414c451ec7f08585c8990a5c89aa0de6472bb6b9ec73349edfcb",
      "blockNumber": "0x9df6b0",
      "gasUsed": "0x29be6d",
      "effectiveGasPrice": "0x103f90",
      "from": "0x490ce9212cf474a5a73936a8d25b5ef46751a58f",
      "to": null,
      "contractAddress": "0x40f7b06433f27b9c9c24fd5d60f2816f9344e04e"
    },
    {
      "status": "0x1",
      "cumulativeGasUsed": "0x1c25b09",
      "logs": [],
      "logsBloom": "0x00000000000000000000000000000000000000000000000000000000000000000000000000000000000000000000000000000000000000000000000000000000000000000000000000000000000000000000000000000000000000000000000000000000000000000000000000000000000000000000000000000000000000000000000000000000000000000000000000000000000000000000000000000000000000000000000000000000000000000000000000000000000000000000000000000000000000000000000000000000000000000000000000000000000000000000000000000000000000000000000000000000000000000000000000000000",
      "type": "0x2",
      "transactionHash": "0x1bf7b5c7ecef4e7fdb26c0c8c902c96783bdbe14dd97e1907ce95df5a19ddb66",
      "transactionIndex": "0x90",
      "blockHash": "0x1ed0dcc6ec36414c451ec7f08585c8990a5c89aa0de6472bb6b9ec73349edfcb",
      "blockNumber": "0x9df6b0",
      "gasUsed": "0xc11a",
      "effectiveGasPrice": "0x103f90",
      "from": "0x490ce9212cf474a5a73936a8d25b5ef46751a58f",
      "to": "0xad9db96e69fb951a235c3522e2ded58391d12067",
      "contractAddress": null
    },
    {
      "status": "0x1",
      "cumulativeGasUsed": "0x1c318df",
      "logs": [],
      "logsBloom": "0x00000000000000000000000000000000000000000000000000000000000000000000000000000000000000000000000000000000000000000000000000000000000000000000000000000000000000000000000000000000000000000000000000000000000000000000000000000000000000000000000000000000000000000000000000000000000000000000000000000000000000000000000000000000000000000000000000000000000000000000000000000000000000000000000000000000000000000000000000000000000000000000000000000000000000000000000000000000000000000000000000000000000000000000000000000000",
      "type": "0x2",
      "transactionHash": "0xd5dfa7d2fc7e8cdd2e98dbf8e33a56d180fb1255d52f64868d385eb1de726f3c",
      "transactionIndex": "0x91",
      "blockHash": "0x1ed0dcc6ec36414c451ec7f08585c8990a5c89aa0de6472bb6b9ec73349edfcb",
      "blockNumber": "0x9df6b0",
      "gasUsed": "0xbdd6",
      "effectiveGasPrice": "0x103f90",
      "from": "0x490ce9212cf474a5a73936a8d25b5ef46751a58f",
      "to": "0xad9db96e69fb951a235c3522e2ded58391d12067",
      "contractAddress": null
    },
    {
      "status": "0x1",
      "cumulativeGasUsed": "0x1c3d6a9",
      "logs": [],
      "logsBloom": "0x00000000000000000000000000000000000000000000000000000000000000000000000000000000000000000000000000000000000000000000000000000000000000000000000000000000000000000000000000000000000000000000000000000000000000000000000000000000000000000000000000000000000000000000000000000000000000000000000000000000000000000000000000000000000000000000000000000000000000000000000000000000000000000000000000000000000000000000000000000000000000000000000000000000000000000000000000000000000000000000000000000000000000000000000000000000",
      "type": "0x2",
      "transactionHash": "0xd7b72eaab20d35ef3457afb4b57743fdebd3072808a804eb4179219017bc15d5",
      "transactionIndex": "0x92",
      "blockHash": "0x1ed0dcc6ec36414c451ec7f08585c8990a5c89aa0de6472bb6b9ec73349edfcb",
      "blockNumber": "0x9df6b0",
      "gasUsed": "0xbdca",
      "effectiveGasPrice": "0x103f90",
      "from": "0x490ce9212cf474a5a73936a8d25b5ef46751a58f",
      "to": "0xad9db96e69fb951a235c3522e2ded58391d12067",
      "contractAddress": null
    },
    {
      "status": "0x1",
      "cumulativeGasUsed": "0x1c4947f",
      "logs": [],
      "logsBloom": "0x00000000000000000000000000000000000000000000000000000000000000000000000000000000000000000000000000000000000000000000000000000000000000000000000000000000000000000000000000000000000000000000000000000000000000000000000000000000000000000000000000000000000000000000000000000000000000000000000000000000000000000000000000000000000000000000000000000000000000000000000000000000000000000000000000000000000000000000000000000000000000000000000000000000000000000000000000000000000000000000000000000000000000000000000000000000",
      "type": "0x2",
      "transactionHash": "0x4eb1cfd36167de09a79b6808d15bc14117783e20935ae59e7e9eea2bde8b6a0b",
      "transactionIndex": "0x93",
      "blockHash": "0x1ed0dcc6ec36414c451ec7f08585c8990a5c89aa0de6472bb6b9ec73349edfcb",
      "blockNumber": "0x9df6b0",
      "gasUsed": "0xbdd6",
      "effectiveGasPrice": "0x103f90",
      "from": "0x490ce9212cf474a5a73936a8d25b5ef46751a58f",
      "to": "0xad9db96e69fb951a235c3522e2ded58391d12067",
      "contractAddress": null
    },
    {
      "status": "0x1",
      "cumulativeGasUsed": "0x1c55f50",
      "logs": [],
      "logsBloom": "0x00000000000000000000000000000000000000000000000000000000000000000000000000000000000000000000000000000000000000000000000000000000000000000000000000000000000000000000000000000000000000000000000000000000000000000000000000000000000000000000000000000000000000000000000000000000000000000000000000000000000000000000000000000000000000000000000000000000000000000000000000000000000000000000000000000000000000000000000000000000000000000000000000000000000000000000000000000000000000000000000000000000000000000000000000000000",
      "type": "0x2",
      "transactionHash": "0xcdfb77a25cf35107e4b7006e9cfbfe6d43f8ed55a29c096a95a8401ada911690",
      "transactionIndex": "0x94",
      "blockHash": "0x1ed0dcc6ec36414c451ec7f08585c8990a5c89aa0de6472bb6b9ec73349edfcb",
      "blockNumber": "0x9df6b0",
      "gasUsed": "0xcad1",
      "effectiveGasPrice": "0x103f90",
      "from": "0x490ce9212cf474a5a73936a8d25b5ef46751a58f",
      "to": "0xad9db96e69fb951a235c3522e2ded58391d12067",
      "contractAddress": null
    },
    {
      "status": "0x1",
      "cumulativeGasUsed": "0x1c62248",
      "logs": [],
      "logsBloom": "0x00000000000000000000000000000000000000000000000000000000000000000000000000000000000000000000000000000000000000000000000000000000000000000000000000000000000000000000000000000000000000000000000000000000000000000000000000000000000000000000000000000000000000000000000000000000000000000000000000000000000000000000000000000000000000000000000000000000000000000000000000000000000000000000000000000000000000000000000000000000000000000000000000000000000000000000000000000000000000000000000000000000000000000000000000000000",
      "type": "0x2",
      "transactionHash": "0x0a8e71fd02331aa96c8e46c5af47dfe87d550f9439b4e5c034ed924193ddadd8",
      "transactionIndex": "0x95",
      "blockHash": "0x1ed0dcc6ec36414c451ec7f08585c8990a5c89aa0de6472bb6b9ec73349edfcb",
      "blockNumber": "0x9df6b0",
      "gasUsed": "0xc2f8",
      "effectiveGasPrice": "0x103f90",
      "from": "0x490ce9212cf474a5a73936a8d25b5ef46751a58f",
      "to": "0xad9db96e69fb951a235c3522e2ded58391d12067",
      "contractAddress": null
    }
  ],
  "libraries": [],
  "pending": [],
  "returns": {},
  "timestamp": 1772254057202,
  "chain": 11155111,
  "commit": "ad9e7c8"
}