{
  "transactions": [
    {
      "hash": "0x24f1bd541fd5090fc13b4b11ffda99cd2c54e05eadeb29ebbaed7fed2295672d",
      "transactionType": "CREATE",
      "contractName": "MockSafe",
      "contractAddress": "0x86ab43b140ab33ce9e93fb5c2a287f1eacf1db82",
      "function": null,
      "arguments": null,
      "transaction": {
        "from": "0x490ce9212cf474a5a73936a8d25b5ef46751a58f",
        "gas": "0x53dec",
        "value": "0x0",
        "input": "0x6080806040523461002c57335f525f60205260405f20600160ff1982541617905561036790816100318239f35b5f80fdfe60806040908082526004361015610014575f80fd5b5f3560e01c908163022914a71461026a575080632f54bf6e1461022f578063468721a7146101b8578063a0e67e2b146101075763be6002c214610055575f80fd5b3461010357806003193601126101035761006d6102a3565b60243567ffffffffffffffff8111610103575f9182610091819336906004016102b9565b91908287519384928337810182815203925af16100ac6102e7565b908251928391151582526020816020840152835180928401525f935b8285106100ea575050606092505f838284010152601f80199101168101030190f35b84810182015186860160600152938101938593506100c8565b5f80fd5b5034610103575f3660031901126101035780519080820182811067ffffffffffffffff8211176101a457815260019160018152602090818101918036843781511561019057909391933385528351938285019183865251809252840194915f5b8281106101745785870386f35b83516001600160a01b0316875295810195928101928401610167565b634e487b7160e01b5f52603260045260245ffd5b634e487b7160e01b5f52604160045260245ffd5b5034610103576080366003190112610103576101d26102a3565b9060443567ffffffffffffffff8111610103576101f39036906004016102b9565b9060643560ff81160361010357602093825f939284938651928392833781018481520391602435905af1906102266102e7565b50519015158152f35b5034610103576020366003190112610103576020906001600160a01b036102546102a3565b165f525f825260ff815f20541690519015158152f35b9050346101035760203660031901126101035760209160ff906001600160a01b036102936102a3565b165f525f84525f20541615158152f35b600435906001600160a01b038216820361010357565b9181601f840112156101035782359167ffffffffffffffff8311610103576020838186019501011161010357565b3d1561032c5767ffffffffffffffff903d8281116101a45760405192601f8201601f19908116603f01168401908111848210176101a45760405282523d5f602084013e565b60609056fea26469706673582212203d7752efe2cc7835b71fb7b59ff247128b7704ebd98cd2ddc03370531c1da1c064736f6c63430008180033",
        "nonce": "0x28",
        "chainId": "0xaa36a7"
      },
      "additionalContracts": [],
      "isFixedGasLimit": false
    },
    {
      "hash": "0xe8fbab605090f5d4712dd8913f2ee5149ba27c12693a20d1a208d30ae60e3c41",
      "transactionType": "CREATE",
      "contractName": "MockAavePool",
      "contractAddress": "0x9266cbf2212e6a31ccab3c60553d41613cb0f93d",
      "function": null,
      "arguments": null,
      "transaction": {
        "from": "0x490ce9212cf474a5a73936a8d25b5ef46751a58f",
        "gas": "0x352f1",
        "value": "0x0",
        "input": "0x6080806040523461002b57671bc16d674ec800005f55652d79883d200060015561014390816100308239f35b5f80fdfe6080806040526004361015610012575f80fd5b5f3560e01c908163077d6f92146100f4575080633fabc6b7146100db5780638ff5e86e146100be578063bf92857c1461006f5763c2a9dbfc14610053575f80fd5b3461006b57602036600319011261006b576004355f55005b5f80fd5b3461006b57602036600319011261006b576004356001600160a01b0381160361006b5760c06001545f546040519182525f60208301525f60408301525f60608301525f608083015260a0820152f35b3461006b575f36600319011261006b576020600154604051908152f35b3461006b57602036600319011261006b57600435600155005b3461006b575f36600319011261006b576020905f548152f3fea264697066735822122023f0b9996b9b83855658b3553672ef7700bd12d7d8913dadb35f8b581f05bc5264736f6c63430008180033",
        "nonce": "0x29",
        "chainId": "0xaa36a7"
      },
      "additionalContracts": [],
      "isFixedGasLimit": false
    },
    {
      "hash": "0x57a2e8b46bc63cd59c363a3a323c0f09f425e5ccf23f0e4ad9781492da18f93d",
      "transactionType": "CREATE",
      "contractName": "MockOracle",
      "contractAddress": "0x9ea1f2e857abde66a8e8e36e6218c1fbfeb98496",
      "function": null,
      "arguments": null,
      "transaction": {
        "from": "0x490ce9212cf474a5a73936a8d25b5ef46751a58f",
        "gas": "0x1b0ab",
        "value": "0x0",
        "input": "0x60808060405234601457609390816100198239f35b5f80fdfe60808060405260043610156011575f80fd5b5f3560e01c63feaf968c146023575f80fd5b346059575f36600319011260595780600160a0925265082f79cd900060208201525f604082015242606082015260016080820152f35b5f80fdfea2646970667358221220da0f0f636178f8f13559e514409dd8b7bab91dbbb71f23eeac38a7067f98ddf764736f6c63430008180033",
        "nonce": "0x2a",
        "chainId": "0xaa36a7"
      },
      "additionalContracts": [],
      "isFixedGasLimit": false
    },
    {
      "hash": "0xaa70080845dcdd0cbcc71fc4c2dbd095eaef1b427947d59261eced7234526c0f",
      "transactionType": "CREATE",
      "contractName": "MockTarget",
      "contractAddress": "0x77b819dd5b8e441f11cef25421a111c0ad0003b5",
      "function": null,
      "arguments": null,
      "transaction": {
        "from": "0x490ce9212cf474a5a73936a8d25b5ef46751a58f",
        "gas": "0x1b3e6",
        "value": "0x0",
        "input": "0x60808060405234601457609690816100198239f35b5f80fdfe60808060405260043610156011575f80fd5b5f3560e01c9081633fa4f245146049575063a6b206bf14602f575f80fd5b3460455760203660031901126045576004355f55005b5f80fd5b346045575f3660031901126045576020905f548152f3fea264697066735822122078ca340ffe76e375a3d62935fa89c900ffc4169f9004e7aca3e30bd325ede9c264736f6c63430008180033",
        "nonce": "0x2b",
        "chainId": "0xaa36a7"
      },
      "additionalContracts": [],
      "isFixedGasLimit": false
    },
    {
      "hash": "0x354a392cc7d742934cc606a970a76c7a3ded737082d231d044c66cc86f4b427e",
      "transactionType": "CREATE",
      "contractName": "LimitedSignerModule",
      "contractAddress": "0x0e81f9cde815709a73e609f7424b1fa0ff7dc153",
      "function": null,
      "arguments": [
        "0x86Ab43b140Ab33CE9e93Fb5c2a287f1Eacf1Db82",
        "0x9266cBf2212E6A31CCAb3c60553d41613Cb0f93D",
        "0x9Ea1F2E857Abde66A8e8e36e6218C1FBFeb98496"
      ],
      "transaction": {
        "from": "0x490ce9212cf474a5a73936a8d25b5ef46751a58f",
        "gas": "0x31d3c7",
        "value": "0x0",
        "input": "0x60e0346200019b57601f6200290838819003918201601f19168301916001600160401b038311848410176200019f578084926060946040528339810103126200019b576200004d81620001b3565b6200006960406200006160208501620001b3565b9301620001b3565b6412a05f2000600155601460029081556003556402e7ddb0006004556717deaae315ac0000600555610190600681905561012c6007556023600855640e875470006009819055600a5560c8600b55600c556001600160a01b0391821660805291811660a0521660c0524260125560405161273f9081620001c9823960805181818161038b015281816104b2015281816104fd0152818161068e0152818161082a015281816108be01528181610ad601528181610b2301528181610b7301528181610cfe01528181610dc201528181610e0f01528181610e7501528181610faa01528181611158015281816116100152818161166b015281816116f6015281816117aa015281816123cc0152612635015260a05181818161106e015281816123fe0152612667015260c0518161046c0152f35b5f80fd5b634e487b7160e01b5f52604160045260245ffd5b51906001600160a01b03821682036200019b5756fe60806040526004361015610011575f80fd5b5f3560e01c806301b08d5814610374578063042641d81461036f578063069786ea1461036a57806309eaed95146103655780630f668d7d14610360578063186f03541461035b5780631afb6062146103565780631f3a0e411461035157806320ecc78e1461034c57806323cdc3f114610347578063285b7e5114610342578063286daaf61461033d578063342aa8b5146103385780633431a121146103335780633ba8396e1461032e5780633de39c111461032957806340a0b2bc1461032457806343f772fd1461031f5780634db930a61461031a578063588c84aa1461031557806365f88c2c146103105780636bf6191f1461030b5780636c9ff2f21461030657806379768c09146103015780637f055afe146102fc5780637f2671c1146102f7578063830e57d4146102f25780638c1b6820146102ed5780638d700254146102e85780639091c3e1146102e357806395229d8f146102de57806395851a65146102d95780639d966282146102d4578063a03e4bc3146102cf578063a79b2e7a146102ca578063a9a4cad5146102c5578063ada14698146102c0578063aec478cc146102bb578063b4c9191e146102b6578063b8fe8d5f146102b1578063bba013aa146102ac578063c081bd42146102a7578063c4aa7395146102a2578063c86d38251461029d578063cef0ed2314610298578063cf37b9d314610293578063d127fd801461028e578063d1b9e85314610289578063d2fa635e14610284578063da35c6641461027f578063dfd1d57f1461027a578063e1b4264c14610275578063f83f4432146102705763fbd1b6951461026b575f80fd5b611804565b611767565b61174a565b6116be565b6116a1565b611654565b6115d8565b61153c565b6112f3565b6112d6565b6112ba565b61129d565b611280565b61122f565b6111f2565b6111d5565b6111b8565b611142565b6110d8565b61109d565b611059565b61101e565b610f94565b610e45565b610df8565b610dab565b610d8e565b610d51565b610d34565b610ce7565b610cb9565b610b59565b610b0c565b610abf565b6109d0565b6109b3565b610996565b610979565b61095c565b61091f565b610902565b610886565b61085f565b610813565b6107c2565b6107a5565b610784565b61052c565b6104e8565b61049b565b610457565b610429565b6103f1565b346103c15760203660031901126103c1576103b9337f00000000000000000000000000000000000000000000000000000000000000006001600160a01b031614611820565b600435600555005b5f80fd5b600435906001600160a01b03821682036103c157565b602435906001600160a01b03821682036103c157565b346103c15760203660031901126103c1576001600160a01b036104126103c5565b165f526011602052602060405f2054604051908152f35b346103c1575f3660031901126103c15760606013546014546015549060405192835260208301526040820152f35b346103c1575f3660031901126103c1576040517f00000000000000000000000000000000000000000000000000000000000000006001600160a01b03168152602090f35b346103c15760203660031901126103c1576104e0337f00000000000000000000000000000000000000000000000000000000000000006001600160a01b031614611820565b600435600a55005b346103c1575f3660031901126103c1576040517f00000000000000000000000000000000000000000000000000000000000000006001600160a01b03168152602090f35b346103c15760203660031901126103c15760043561054e60ff5f54161561185d565b610560815f52601760205260405f2090565b60038101916105846001610575855460ff1690565b61057e816110ba565b1461189e565b610596600583015460035411156118dd565b61059e6124f7565b6105ad60135460025411611928565b6105bb6001543a1115611974565b600282019261062960206105ce86611af0565b0151916106036105f96105f28563ffffffff60e01b165f52601660205260405f2090565b5442611b21565b6007541115611b33565b61061461060f87611af0565b612597565b61061c61261e565b805460ff19166002179055565b61063c610637601354611b76565b601355565b6001600160e01b0319165f90815260166020526040902042905581546020906001600160a01b0316600184015460405163468721a760e01b81529586928392610689929160048501611b9c565b03815f7f00000000000000000000000000000000000000000000000000000000000000006001600160a01b03165af191821561077f57610726935f93610728575b50826107067f6ee1fdcf1f77ab4d1e7507d8d42cf626f791ae3733ec11c1ef2df944d6780c68926106f961261e565b546001600160a01b031690565b604080516001600160a01b039290921682529115156020820152a2611bd7565b005b6107069350906107707f6ee1fdcf1f77ab4d1e7507d8d42cf626f791ae3733ec11c1ef2df944d6780c689260203d602011610778575b6107688183611ace565b810190611b84565b9350906106ca565b503d61075e565b611bcc565b346103c1575f3660031901126103c157602060ff5f54166040519015158152f35b346103c1575f3660031901126103c1576020600254604051908152f35b346103c15760403660031901126103c157602060ff6108076107e26103db565b6004355f5260178452600660405f20019060018060a01b03165f5260205260405f2090565b54166040519015158152f35b346103c15760203660031901126103c157610858337f00000000000000000000000000000000000000000000000000000000000000006001600160a01b031614611820565b5f19600155005b346103c1575f3660031901126103c1576020600354604051908152f35b801515036103c157565b346103c15760403660031901126103c1576107266108a26103c5565b602435906108af8261087c565b6001600160a01b03906108e5337f0000000000000000000000000000000000000000000000000000000000000000841614611820565b165f52601060205260405f209060ff801983541691151516179055565b346103c1575f3660031901126103c1576020600954604051908152f35b346103c15760203660031901126103c1576001600160a01b036109406103c5565b165f526010602052602060ff60405f2054166040519015158152f35b346103c1575f3660031901126103c1576020600154604051908152f35b346103c1575f3660031901126103c1576020600654604051908152f35b346103c1575f3660031901126103c1576020600a54604051908152f35b346103c1575f3660031901126103c1576020601454604051908152f35b346103c15760203660031901126103c157600435335f5260106020526109fc60ff60405f205416611c1b565b610a0a60ff5f54161561185d565b805f526017602052600560405f20610a2e600160ff60038401541661057e816110ba565b610a8a610a7d60068301610a6b610a66610a62610a5b33859060018060a01b03165f5260205260405f2090565b5460ff1690565b1590565b611c5f565b335f9081526020919091526040902090565b805460ff19166001179055565b01610a958154611b76565b905533907f99b919f7184d77ef9a6a66ffb9a952fa03e6a8ead078d3fdb3eccc88c91b6fc55f80a3005b346103c15760203660031901126103c157610b04337f00000000000000000000000000000000000000000000000000000000000000006001600160a01b031614611820565b600435600755005b346103c15760203660031901126103c157610b51337f00000000000000000000000000000000000000000000000000000000000000006001600160a01b031614611820565b600435600955005b346103c15760203660031901126103c157600435610ba1337f00000000000000000000000000000000000000000000000000000000000000006001600160a01b031614611820565b8015610bac57600355005b60405162461bcd60e51b815260206004820152601a60248201527f4c534d3a207468726573686f6c64206d757374206265203e20300000000000006044820152606490fd5b9181601f840112156103c15782359167ffffffffffffffff83116103c157602083818601950101116103c157565b9060606003198301126103c1576004356001600160a01b03811681036103c157916024359067ffffffffffffffff82116103c157610c5f91600401610bf1565b909160443590565b9092919215158152602092604060208301528051908160408401525f5b828110610ca557505060609293505f838284010152601f8019910116010190565b818101860151848201606001528501610c84565b346103c157610cd3610cca36610c1f565b92919091611e20565b90610ce360405192839283610c67565b0390f35b346103c15760203660031901126103c157610d2c337f00000000000000000000000000000000000000000000000000000000000000006001600160a01b031614611820565b600435600255005b346103c1575f3660031901126103c1576020601254604051908152f35b346103c15760203660031901126103c1576001600160a01b03610d726103c5565b165f52600f602052602060ff60405f2054166040519015158152f35b346103c1575f3660031901126103c1576020600754604051908152f35b346103c15760203660031901126103c157610df0337f00000000000000000000000000000000000000000000000000000000000000006001600160a01b031614611820565b600435600c55005b346103c15760203660031901126103c157610e3d337f00000000000000000000000000000000000000000000000000000000000000006001600160a01b031614611820565b600480359055005b346103c15760403660031901126103c157610e5e6103c5565b610e666103db565b6001600160a01b0390610e9c337f0000000000000000000000000000000000000000000000000000000000000000841614611820565b81831692835f52601060205260ff60405f20541615610f4f57610efd610f0791610ee4610edf610a62610a5b8760018060a01b03165f52601060205260405f2090565b611f3c565b6001600160a01b03165f90815260106020526040902090565b805460ff19169055565b6001600160a01b0381165f908152601060205260409020610f2790610a7d565b16907fd4a61de18604c407fb07c52ae3590ed3d74c6e4aac1fc46fba16b931bc633c955f80a3005b60405162461bcd60e51b815260206004820152601b60248201527f4c534d3a206f6c6420626f74206e6f7420617574686f72697a656400000000006044820152606490fd5b346103c1575f3660031901126103c157610fd8337f00000000000000000000000000000000000000000000000000000000000000006001600160a01b031614611820565b60ff195f54165f55337f0c372fb54f53ddff4a3975aa89406b4352381788a06682c6484c548d5a8d60525f80a2005b602435906001600160e01b0319821682036103c157565b346103c15760203660031901126103c15760043563ffffffff60e01b81168091036103c1575f526016602052602060405f2054604051908152f35b346103c1575f3660031901126103c1576040517f00000000000000000000000000000000000000000000000000000000000000006001600160a01b03168152602090f35b346103c1575f3660031901126103c1576020601554604051908152f35b600411156110c457565b634e487b7160e01b5f52602160045260245ffd5b346103c15760203660031901126103c1576004355f52601760205260405f2060018060a01b03815416600182015491600581015460ff60036004840154930154169360405193845260208401526040830152606082015260048210156110c45760a0916080820152f35b346103c1575f3660031901126103c157611186337f00000000000000000000000000000000000000000000000000000000000000006001600160a01b031614611820565b600160ff195f5416175f55337fc56c8fd71c15046bc4921ca227d339cad8ffb288152fcd2b445f42b23e5783865f80a2005b346103c1575f3660031901126103c1576020600c54604051908152f35b346103c1575f3660031901126103c1576020601354604051908152f35b346103c15760203660031901126103c1576001600160a01b036112136103c5565b165f52600d602052602060ff60405f2054166040519015158152f35b346103c15760403660031901126103c157602060ff61080761124f6103c5565b611257611007565b9060018060a01b03165f52600e845260405f209063ffffffff60e01b165f5260205260405f2090565b346103c1575f3660031901126103c1576020600454604051908152f35b346103c1575f3660031901126103c1576020600854604051908152f35b346103c15760203660031901126103c157610cd3600435611f95565b346103c1575f3660031901126103c1576020600b54604051908152f35b346103c15761130136610c1f565b91929092335f52600f60205260ff60405f205416156114f7577f22af8fa2d68797229f0e00f00ca6952d1b2ea7d4f72eae55c821a54cd65b069b6114bc610ce39561143a9561135460ff5f54161561185d565b6001600160a01b0386165f908152600d6020526040902061137d9061137890610a5b565b611ffa565b61147961139361138d8488611d1c565b90611d2a565b926113d36113ce610a5b866113b88c60018060a01b03165f52600e60205260405f2090565b9063ffffffff60e01b165f5260205260405f2090565b612046565b6113dd831561208e565b6001600160a01b0388165f908152601160205260409020883f90546114cf575b506018549661143f8960405161142f816114218d60208301958b8a8a42938a61211c565b03601f198101835282611ace565b5190209a8b99611b76565b601855565b611451885f52601760205260405f2090565b80546001600160a01b0319166001600160a01b038b16178155936001850155600284016121a4565b60038101805460ff191660011790554260049190910155604080516001600160a01b0390961686526001600160e01b031990911660208601523394918291820190565b0390a36040519081529081906020820190565b6001600160a01b0389165f908152601160205260409020546114f191146120d5565b5f6113fd565b60405162461bcd60e51b815260206004820152601a60248201527f4c534d3a20756e617574686f72697a65642070726f706f7365720000000000006044820152606490fd5b346103c1576040806003193601126103c15760243567ffffffffffffffff81116103c15761158f7fdf87962b862dad1e46658c17c4fd3b22de509e3d8d8a199a4f68abf4162c5596913690600401610bf1565b9190335f5260106020526115a860ff855f205416611c1b565b8284519160208352816020840152858301375f818401850152339360043593601f01601f191682018290030190a3005b346103c15760403660031901126103c1576107266115f46103c5565b602435906116018261087c565b6001600160a01b0390611637337f0000000000000000000000000000000000000000000000000000000000000000841614611820565b165f52600f60205260405f209060ff801983541691151516179055565b346103c15760203660031901126103c157611699337f00000000000000000000000000000000000000000000000000000000000000006001600160a01b031614611820565b600435600155005b346103c1575f3660031901126103c1576020601854604051908152f35b346103c15760603660031901126103c15761173a6116da6103c5565b602435906116e78261087c565b6001600160a01b039061171d337f0000000000000000000000000000000000000000000000000000000000000000841614611820565b165f52600d60205260405f209060ff801983541691151516179055565b601160205260405f206044359055005b346103c1575f3660031901126103c1576020600554604051908152f35b346103c15760603660031901126103c1576107266117836103c5565b6117f361178e611007565b6044359261179b8461087c565b6001600160a01b03906117d1337f0000000000000000000000000000000000000000000000000000000000000000841614611820565b165f52600e60205260405f209063ffffffff60e01b165f5260205260405f2090565b9060ff801983541691151516179055565b346103c15760203660031901126103c157610cd360043561239a565b1561182757565b60405162461bcd60e51b815260206004820152600e60248201526d4c534d3a206f6e6c79205361666560901b6044820152606490fd5b1561186457565b60405162461bcd60e51b81526020600482015260126024820152711314d34e881b5bd91d5b19481ada5b1b195960721b6044820152606490fd5b156118a557565b60405162461bcd60e51b815260206004820152601060248201526f4c534d3a206e6f742070656e64696e6760801b6044820152606490fd5b156118e457565b606460405162461bcd60e51b815260206004820152602060248201527f4c534d3a20696e73756666696369656e7420626f74207369676e6174757265736044820152fd5b1561192f57565b60405162461bcd60e51b815260206004820152601b60248201527f4c534d3a206461696c79207478206c696d6974207265616368656400000000006044820152606490fd5b1561197b57565b60405162461bcd60e51b8152602060048201526011602482015270098a69a7440cec2e640e8dede40d0d2ced607b1b6044820152606490fd5b90600182811c921680156119e2575b60208310146119ce57565b634e487b7160e01b5f52602260045260245ffd5b91607f16916119c3565b80545f93926119fa826119b4565b918282526020936001916001811690815f14611a5e5750600114611a20575b5050505050565b90939495505f92919252835f2092845f945b838610611a4a57505050500101905f80808080611a19565b805485870183015294019385908201611a32565b60ff19168685015250505090151560051b010191505f80808080611a19565b634e487b7160e01b5f52604160045260245ffd5b6020810190811067ffffffffffffffff821117611aad57604052565b611a7d565b6040810190811067ffffffffffffffff821117611aad57604052565b90601f8019910116810190811067ffffffffffffffff821117611aad57604052565b90611b0b611b0492604051938480926119ec565b0383611ace565b565b634e487b7160e01b5f52601160045260245ffd5b91908203918211611b2e57565b611b0d565b15611b3a57565b60405162461bcd60e51b81526020600482015260146024820152734c534d3a20636f6f6c646f776e2061637469766560601b6044820152606490fd5b5f198114611b2e5760010190565b908160209103126103c15751611b998161087c565b90565b9392611bc7905f9360609360018060a01b0316875260208701526080604087015260808601906119ec565b930152565b6040513d5f823e3d90fd5b15611bde57565b60405162461bcd60e51b81526020600482015260156024820152741314d34e88195e1958dd5d1a5bdb8819985a5b1959605a1b6044820152606490fd5b15611c2257565b60405162461bcd60e51b81526020600482015260156024820152741314d34e881d5b985d5d1a1bdc9a5e995908189bdd605a1b6044820152606490fd5b15611c6657565b60405162461bcd60e51b81526020600482015260156024820152741314d34e88185b1c9958591e48185c1c1c9bdd9959605a1b6044820152606490fd5b60405190611cb082611a91565b5f8252565b60405190611cc282611ab2565b60128252711314d34e881b5bd91d5b19481ada5b1b195960721b6020830152565b60405190611cf082611ab2565b601b82527f4c534d3a20746172676574206e6f742077686974656c697374656400000000006020830152565b906004116103c15790600490565b6001600160e01b03199035818116939260048110611d4757505050565b60040360031b82901b16169150565b60405190611d6382611ab2565b60198252781314d34e88199d5b98dd1a5bdb881b9bdd08185b1b1bddd959603a1b6020830152565b60405190611d9882611ab2565b60188252772629a69d103737903930bb9022aa24103a3930b739b332b960411b6020830152565b60405190611dcc82611ab2565b6011825270098a69a7440cec2e640e8dede40d0d2ced607b1b6020830152565b60405190611df982611ab2565b60188252771314d34e881d185c99d95d0818dbd9194818da185b99d95960421b6020830152565b9291611e2d5f5460ff1690565b611f2e576001600160a01b0384165f908152600d60205260409020611e5590610a6290610a5b565b611f2057610a5b611e6f61138d610a6293611e8b95611d1c565b6001600160a01b0386165f908152600e602052604090206113b8565b611f1457611f09576001543a11611efe576001600160a01b0381165f908152601160205260409020813f905415159182611edb575b5050611ed157600190611b99611ca3565b5f90611b99611dec565b6001600160a01b03165f9081526011602052604090209091505414155f80611ec0565b505f90611b99611dbf565b505f90611b99611d8b565b50505f90611b99611d56565b505050505f90611b99611ce3565b505050505f90611b99611cb5565b15611f4357565b60405162461bcd60e51b815260206004820152601f60248201527f4c534d3a206e657720626f7420616c726561647920617574686f72697a6564006044820152606490fd5b91908201809211611b2e57565b601554908101809111611b2e57600a5410611fbf57600190604051611fb981611a91565b5f815290565b5f90604051611fcd81611ab2565b601f81527f4c534d3a206461696c79207377617020766f6c756d6520657863656564656400602082015290565b1561200157565b60405162461bcd60e51b815260206004820152601b60248201527f4c534d3a20746172676574206e6f742077686974656c697374656400000000006044820152606490fd5b1561204d57565b60405162461bcd60e51b81526020600482015260196024820152781314d34e88199d5b98dd1a5bdb881b9bdd08185b1b1bddd959603a1b6044820152606490fd5b1561209557565b60405162461bcd60e51b81526020600482015260186024820152772629a69d103737903930bb9022aa24103a3930b739b332b960411b6044820152606490fd5b156120dc57565b60405162461bcd60e51b81526020600482015260186024820152771314d34e881d185c99d95d0818dbd9194818da185b99d95960421b6044820152606490fd5b909280926074979596946bffffffffffffffffffffffff199060601b168352601483013701926014840152603483015260548201520190565b601f821161216257505050565b5f5260205f20906020601f840160051c8301931061219a575b601f0160051c01905b81811061218f575050565b5f8155600101612184565b909150819061217b565b90929167ffffffffffffffff8111611aad576121ca816121c484546119b4565b84612155565b5f601f82116001146122085781906121f99394955f926121fd575b50508160011b915f199060031b1c19161790565b9055565b013590505f806121e5565b601f1982169461221b845f5260205f2090565b915f5b87811061225557508360019596971061223c575b505050811b019055565b01355f19600384901b60f8161c191690555f8080612232565b9092602060018192868601358155019401910161221e565b90607d820291808304607d1490151715611b2e57565b81810292918115918404141715611b2e57565b604051906122a382611ab2565b601b82527f4c534d3a20626f72726f7720616d6f756e7420657863656564656400000000006020830152565b91908260c09103126103c15781519160208101519160408201519160608101519160a0608083015192015190565b6040519061230a82611ab2565b601b82527f4c534d3a20626f72726f7720657863656564732054564c2063617000000000006020830152565b6040519061234382611ab2565b600f82526e4c534d3a20484620746f6f206c6f7760881b6020830152565b6040519061236e82611ab2565b601a82527f4c534d3a206461696c7920766f6c756d652065786365656465640000000000006020830152565b6123af6123a860045461226d565b6064900490565b81116124ec57604051632fe4a15f60e21b81526001600160a01b037f00000000000000000000000000000000000000000000000000000000000000008116600483015260c090829060249082907f0000000000000000000000000000000000000000000000000000000000000000165afa90811561077f575f905f926124ac575b5061244161244991600c5490612283565b612710900490565b82116124a0575f198114159081612494575b506124895761246c90601454611f88565b6009541061247f57600190611b99611ca3565b5f90611b99612361565b505f90611b99612336565b9050600554115f61245b565b50505f90611b996122fd565b612441925061244991506124d79060c03d60c0116124e5575b6124cf8183611ace565b8101906122cf565b969493505050509150612430565b503d6124c5565b505f90611b99612296565b601254620151808101809111611b2e5742101561251057565b426012555f6013555f6014555f6015557f450d69a307fe727c4d16c9aa74048123badcca4d9a3070218b80892e26ee3a166020604051428152a1565b1561255357565b606460405162461bcd60e51b815260206004820152602060248201527f4c534d3a20756e617574686f72697a656420746f6b656e207472616e736665726044820152fd5b60048151106125f55760208101516001600160e01b03191663a9059cbb60e01b81036125e75750602401516001600160a01b03165f908152600d60205260409020611b0b9060ff905b541661254c565b6323b872dd60e01b146125f8575b50565b604401516001600160a01b03165f908152600d60205260409020611b0b9060ff906125e0565b604051632fe4a15f60e21b81526001600160a01b037f00000000000000000000000000000000000000000000000000000000000000008116600483015260c090829060249082907f0000000000000000000000000000000000000000000000000000000000000000165afa90811561077f575f916126e4575b50600181016126a35750565b600554116126ad57565b60405162461bcd60e51b815260206004820152600f60248201526e4c534d3a20484620746f6f206c6f7760881b6044820152606490fd5b6126fd915060c03d60c0116124e5576124cf8183611ace565b9450505050505f61269756fea264697066735822122082ba5cd5a7d831ec9a1a1ea45aea2e5269321819ce89b46d9c8aa16fd9793d7964736f6c6343000818003300000000000000000000000086ab43b140ab33ce9e93fb5c2a287f1eacf1db820000000000000000000000009266cbf2212e6a31ccab3c60553d41613cb0f93d0000000000000000000000009ea1f2e857abde66a8e8e36e6218c1fbfeb98496",
        "nonce": "0x2c",
        "chainId": "0xaa36a7"
      },
      "additionalContracts": [],
      "isFixedGasLimit": false
    },
    {
      "hash": "0x2c0ba5dcdd2c29277bd6c97d6c173371e551c305ceb74e15834275da9015abb5",
      "transactionType": "CALL",
      "contractName": "MockSafe",
      "contractAddress": "0x86ab43b140ab33ce9e93fb5c2a287f1eacf1db82",
      "function": "exec(address,bytes)",
      "arguments": [
        "0x0e81f9cDE815709A73e609F7424B1Fa0FF7dc153",
        "0xd1b9e853000000000000000000000000490ce9212cf474a5a73936a8d25b5ef46751a58f0000000000000000000000000000000000000000000000000000000000000001"
      ],
      "transaction": {
        "from": "0x490ce9212cf474a5a73936a8d25b5ef46751a58f",
        "to": "0x86ab43b140ab33ce9e93fb5c2a287f1eacf1db82",
        "gas": "0x119e8",
        "value": "0x0",
        "input": "0xbe6002c20000000000000000000000000e81f9cde815709a73e609f7424b1fa0ff7dc15300000000000000000000000000000000000000000000000000000000000000400000000000000000000000000000000000000000000000000000000000000044d1b9e853000000000000000000000000490ce9212cf474a5a73936a8d25b5ef46751a58f000000000000000000000000000000000000000000000000000000000000000100000000000000000000000000000000000000000000000000000000",
        "nonce": "0x2d",
        "chainId": "0xaa36a7"
      },
      "additionalContracts": [],
      "isFixedGasLimit": false
    },
    {
      "hash": "0x70c5fd17abb7c6bb3c2b9fda3cefded7d20acf34edb411aa7f4b387ed81839b0",
      "transactionType": "CALL",
      "contractName": "MockSafe",
      "contractAddress": "0x86ab43b140ab33ce9e93fb5c2a287f1eacf1db82",
      "function": "exec(address,bytes)",
      "arguments": [
        "0x0e81f9cDE815709A73e609F7424B1Fa0FF7dc153",
        "0x342aa8b500000000000000000000000070997970c51812dc3a010c7d01b50e0d17dc79c80000000000000000000000000000000000000000000000000000000000000001"
      ],
      "transaction": {
        "from": "0x490ce9212cf474a5a73936a8d25b5ef46751a58f",
        "to": "0x86ab43b140ab33ce9e93fb5c2a287f1eacf1db82",
        "gas": "0x10617",
        "value": "0x0",
        "input": "0xbe6002c20000000000000000000000000e81f9cde815709a73e609f7424b1fa0ff7dc15300000000000000000000000000000000000000000000000000000000000000400000000000000000000000000000000000000000000000000000000000000044342aa8b500000000000000000000000070997970c51812dc3a010c7d01b50e0d17dc79c8000000000000000000000000000000000000000000000000000000000000000100000000000000000000000000000000000000000000000000000000",
        "nonce": "0x2e",
        "chainId": "0xaa36a7"
      },
      "additionalContracts": [],
      "isFixedGasLimit": false
    },
    {
      "hash": "0xb4012d73b2ddf9aea37d8c3adc112f85a0028f9faa9e60976b9303667f107a65",
      "transactionType": "CALL",
      "contractName": "MockSafe",
      "contractAddress": "0x86ab43b140ab33ce9e93fb5c2a287f1eacf1db82",
      "function": "exec(address,bytes)",
      "arguments": [
        "0x0e81f9cDE815709A73e609F7424B1Fa0FF7dc153",
        "0x342aa8b50000000000000000000000003c44cdddb6a900fa2b585dd299e03d12fa4293bc0000000000000000000000000000000000000000000000000000000000000001"
      ],
      "transaction": {
        "from": "0x490ce9212cf474a5a73936a8d25b5ef46751a58f",
        "to": "0x86ab43b140ab33ce9e93fb5c2a287f1eacf1db82",
        "gas": "0x10606",
        "value": "0x0",
        "input": "0xbe6002c20000000000000000000000000e81f9cde815709a73e609f7424b1fa0ff7dc15300000000000000000000000000000000000000000000000000000000000000400000000000000000000000000000000000000000000000000000000000000044342aa8b50000000000000000000000003c44cdddb6a900fa2b585dd299e03d12fa4293bc000000000000000000000000000000000000000000000000000000000000000100000000000000000000000000000000000000000000000000000000",
        "nonce": "0x2f",
        "chainId": "0xaa36a7"
      },
      "additionalContracts": [],
      "isFixedGasLimit": false
    },
    {
      "hash": "0xb4e70a9af0ecb2c58a8e42ea85e47abd19a81e7d1898a105dfae33ab8947fb3a",
      "transactionType": "CALL",
      "contractName": "MockSafe",
      "contractAddress": "0x86ab43b140ab33ce9e93fb5c2a287f1eacf1db82",
      "function": "exec(address,bytes)",
      "arguments": [
        "0x0e81f9cDE815709A73e609F7424B1Fa0FF7dc153",
        "0x342aa8b500000000000000000000000090f79bf6eb2c4f870365e785982e1f101e93b9060000000000000000000000000000000000000000000000000000000000000001"
      ],
      "transaction": {
        "from": "0x490ce9212cf474a5a73936a8d25b5ef46751a58f",
        "to": "0x86ab43b140ab33ce9e93fb5c2a287f1eacf1db82",
        "gas": "0x10617",
        "value": "0x0",
        "input": "0xbe6002c20000000000000000000000000e81f9cde815709a73e609f7424b1fa0ff7dc15300000000000000000000000000000000000000000000000000000000000000400000000000000000000000000000000000000000000000000000000000000044342aa8b500000000000000000000000090f79bf6eb2c4f870365e785982e1f101e93b906000000000000000000000000000000000000000000000000000000000000000100000000000000000000000000000000000000000000000000000000",
        "nonce": "0x30",
        "chainId": "0xaa36a7"
      },
      "additionalContracts": [],
      "isFixedGasLimit": false
    },
    {
      "hash": "0x747f255f4fa34ea4a184dcab2b4e429c3a70836d3eec41552915dcf21e01b5fe",
      "transactionType": "CALL",
      "contractName": "MockSafe",
      "contractAddress": "0x86ab43b140ab33ce9e93fb5c2a287f1eacf1db82",
      "function": "exec(address,bytes)",
      "arguments": [
        "0x0e81f9cDE815709A73e609F7424B1Fa0FF7dc153",
        "0xdfd1d57f00000000000000000000000077b819dd5b8e441f11cef25421a111c0ad0003b500000000000000000000000000000000000000000000000000000000000000010000000000000000000000000000000000000000000000000000000000000000"
      ],
      "transaction": {
        "from": "0x490ce9212cf474a5a73936a8d25b5ef46751a58f",
        "to": "0x86ab43b140ab33ce9e93fb5c2a287f1eacf1db82",
        "gas": "0x1177a",
        "value": "0x0",
        "input": "0xbe6002c20000000000000000000000000e81f9cde815709a73e609f7424b1fa0ff7dc15300000000000000000000000000000000000000000000000000000000000000400000000000000000000000000000000000000000000000000000000000000064dfd1d57f00000000000000000000000077b819dd5b8e441f11cef25421a111c0ad0003b50000000000000000000000000000000000000000000000000000000000000001000000000000000000000000000000000000000000000000000000000000000000000000000000000000000000000000000000000000000000000000",
        "nonce": "0x31",
        "chainId": "0xaa36a7"
      },
      "additionalContracts": [],
      "isFixedGasLimit": false
    },
    {
      "hash": "0xee2ef66ed6a967f9a69c9525ddb109d96a51dbc0cd30c4fb1ee7898a01ccd650",
      "transactionType": "CALL",
      "contractName": "MockSafe",
      "contractAddress": "0x86ab43b140ab33ce9e93fb5c2a287f1eacf1db82",
      "function": "exec(address,bytes)",
      "arguments": [
        "0x0e81f9cDE815709A73e609F7424B1Fa0FF7dc153",
        "0xf83f443200000000000000000000000077b819dd5b8e441f11cef25421a111c0ad0003b5a6b206bf000000000000000000000000000000000000000000000000000000000000000000000000000000000000000000000000000000000000000000000001"
      ],
      "transaction": {
        "from": "0x490ce9212cf474a5a73936a8d25b5ef46751a58f",
        "to": "0x86ab43b140ab33ce9e93fb5c2a287f1eacf1db82",
        "gas": "0x10ca3",
        "value": "0x0",
        "input": "0xbe6002c20000000000000000000000000e81f9cde815709a73e609f7424b1fa0ff7dc15300000000000000000000000000000000000000000000000000000000000000400000000000000000000000000000000000000000000000000000000000000064f83f443200000000000000000000000077b819dd5b8e441f11cef25421a111c0ad0003b5a6b206bf00000000000000000000000000000000000000000000000000000000000000000000000000000000000000000000000000000000000000000000000100000000000000000000000000000000000000000000000000000000",
        "nonce": "0x32",
        "chainId": "0xaa36a7"
      },
      "additionalContracts": [],
      "isFixedGasLimit": false
    }
  ],
  "receipts": [
    {
      "status": "0x1",
      "cumulativeGasUsed": "0x180661a",
      "logs": [],
      "logsBloom": "0x00000000000000000000000000000000000000000000000000000000000000000000000000000000000000000000000000000000000000000000000000000000000000000000000000000000000000000000000000000000000000000000000000000000000000000000000000000000000000000000000000000000000000000000000000000000000000000000000000000000000000000000000000000000000000000000000000000000000000000000000000000000000000000000000000000000000000000000000000000000000000000000000000000000000000000000000000000000000000000000000000000000000000000000000000000000",
      "type": "0x2",
      "transactionHash": "0x24f1bd541fd5090fc13b4b11ffda99cd2c54e05eadeb29ebbaed7fed2295672d",
      "transactionIndex": "0x91",
      "blockHash": "0x39761b626bf24e8a06211106203d2bb5f654cf192392a2d3dffcdd1537bfb63e",
      "blockNumber": "0x9df609",
      "gasUsed": "0x40840",
      "effectiveGasPrice": "0x10a4f4",
      "from": "0x490ce9212cf474a5a73936a8d25b5ef46751a58f",
      "to": null,
      "contractAddress": "0x86ab43b140ab33ce9e93fb5c2a287f1eacf1db82"
    },
    {
      "status": "0x1",
      "cumulativeGasUsed": "0x182f4ac",
      "logs": [],
      "logsBloom": "0x00000000000000000000000000000000000000000000000000000000000000000000000000000000000000000000000000000000000000000000000000000000000000000000000000000000000000000000000000000000000000000000000000000000000000000000000000000000000000000000000000000000000000000000000000000000000000000000000000000000000000000000000000000000000000000000000000000000000000000000000000000000000000000000000000000000000000000000000000000000000000000000000000000000000000000000000000000000000000000000000000000000000000000000000000000000",
      "type": "0x2",
      "transactionHash": "0xe8fbab605090f5d4712dd8913f2ee5149ba27c12693a20d1a208d30ae60e3c41",
      "transactionIndex": "0x92",
      "blockHash": "0x39761b626bf24e8a06211106203d2bb5f654cf192392a2d3dffcdd1537bfb63e",
      "blockNumber": "0x9df609",
      "gasUsed": "0x28e92",
      "effectiveGasPrice": "0x10a4f4",
      "from": "0x490ce9212cf474a5a73936a8d25b5ef46751a58f",
      "to": null,
      "contractAddress": "0x9266cbf2212e6a31ccab3c60553d41613cb0f93d"
    },
    {
      "status": "0x1",
      "cumulativeGasUsed": "0x184417f",
      "logs": [],
      "logsBloom": "0x00000000000000000000000000000000000000000000000000000000000000000000000000000000000000000000000000000000000000000000000000000000000000000000000000000000000000000000000000000000000000000000000000000000000000000000000000000000000000000000000000000000000000000000000000000000000000000000000000000000000000000000000000000000000000000000000000000000000000000000000000000000000000000000000000000000000000000000000000000000000000000000000000000000000000000000000000000000000000000000000000000000000000000000000000000000",
      "type": "0x2",
      "transactionHash": "0xaa70080845dcdd0cbcc71fc4c2dbd095eaef1b427947d59261eced7234526c0f",
      "transactionIndex": "0x93",
      "blockHash": "0x39761b626bf24e8a06211106203d2bb5f654cf192392a2d3dffcdd1537bfb63e",
      "blockNumber": "0x9df609",
      "gasUsed": "0x14cd3",
      "effectiveGasPrice": "0x10a4f4",
      "from": "0x490ce9212cf474a5a73936a8d25b5ef46751a58f",
      "to": null,
      "contractAddress": "0x9ea1f2e857abde66a8e8e36e6218c1fbfeb98496"
    },
    {
      "status": "0x1",
      "cumulativeGasUsed": "0x18590ce",
      "logs": [],
      "logsBloom": "0x00000000000000000000000000000000000000000000000000000000000000000000000000000000000000000000000000000000000000000000000000000000000000000000000000000000000000000000000000000000000000000000000000000000000000000000000000000000000000000000000000000000000000000000000000000000000000000000000000000000000000000000000000000000000000000000000000000000000000000000000000000000000000000000000000000000000000000000000000000000000000000000000000000000000000000000000000000000000000000000000000000000000000000000000000000000",
      "type": "0x2",
      "transactionHash": "0x57a2e8b46bc63cd59c363a3a323c0f09f425e5ccf23f0e4ad9781492da18f93d",
      "transactionIndex": "0x94",
      "blockHash": "0x39761b626bf24e8a06211106203d2bb5f654cf192392a2d3dffcdd1537bfb63e",
      "blockNumber": "0x9df609",
      "gasUsed": "0x14f4f",
      "effectiveGasPrice": "0x10a4f4",
      "from": "0x490ce9212cf474a5a73936a8d25b5ef46751a58f",
      "to": null,
      "contractAddress": "0x77b819dd5b8e441f11cef25421a111c0ad0003b5"
    },
    {
      "status": "0x1",
      "cumulativeGasUsed": "0x1abe4f1",
      "logs": [],
      "logsBloom": "0x00000000000000000000000000000000000000000000000000000000000000000000000000000000000000000000000000000000000000000000000000000000000000000000000000000000000000000000000000000000000000000000000000000000000000000000000000000000000000000000000000000000000000000000000000000000000000000000000000000000000000000000000000000000000000000000000000000000000000000000000000000000000000000000000000000000000000000000000000000000000000000000000000000000000000000000000000000000000000000000000000000000000000000000000000000000",
      "type": "0x2",
      "transactionHash": "0xee2ef66ed6a967f9a69c9525ddb109d96a51dbc0cd30c4fb1ee7898a01ccd650",
      "transactionIndex": "0x95",
      "blockHash": "0x39761b626bf24e8a06211106203d2bb5f654cf192392a2d3dffcdd1537bfb63e",
      "blockNumber": "0x9df609",
      "gasUsed": "0x265423",
      "effectiveGasPrice": "0x10a4f4",
      "from": "0x490ce9212cf474a5a73936a8d25b5ef46751a58f",
      "to": null,
      "contractAddress": "0x0e81f9cde815709a73e609f7424b1fa0ff7dc153"
    },
    {
      "status": "0x1",
      "cumulativeGasUsed": "0x1aca5b3",
      "logs": [],
      "logsBloom": "0x00000000000000000000000000000000000000000000000000000000000000000000000000000000000000000000000000000000000000000000000000000000000000000000000000000000000000000000000000000000000000000000000000000000000000000000000000000000000000000000000000000000000000000000000000000000000000000000000000000000000000000000000000000000000000000000000000000000000000000000000000000000000000000000000000000000000000000000000000000000000000000000000000000000000000000000000000000000000000000000000000000000000000000000000000000000",
      "type": "0x2",
      "transactionHash": "0xb4012d73b2ddf9aea37d8c3adc112f85a0028f9faa9e60976b9303667f107a65",
      "transactionIndex": "0x96",
      "blockHash": "0x39761b626bf24e8a06211106203d2bb5f654cf192392a2d3dffcdd1537bfb63e",
      "blockNumber": "0x9df609",
      "gasUsed": "0xc0c2",
      "effectiveGasPrice": "0x10a4f4",
      "from": "0x490ce9212cf474a5a73936a8d25b5ef46751a58f",
      "to": "0x86ab43b140ab33ce9e93fb5c2a287f1eacf1db82",
      "contractAddress": null
    },
    {
      "status": "0x1",
      "cumulativeGasUsed": "0x1ad6373",
      "logs": [],
      "logsBloom": "0x00000000000000000000000000000000000000000000000000000000000000000000000000000000000000000000000000000000000000000000000000000000000000000000000000000000000000000000000000000000000000000000000000000000000000000000000000000000000000000000000000000000000000000000000000000000000000000000000000000000000000000000000000000000000000000000000000000000000000000000000000000000000000000000000000000000000000000000000000000000000000000000000000000000000000000000000000000000000000000000000000000000000000000000000000000000",
      "type": "0x2",
      "transactionHash": "0x747f255f4fa34ea4a184dcab2b4e429c3a70836d3eec41552915dcf21e01b5fe",
      "transactionIndex": "0x97",
      "blockHash": "0x39761b626bf24e8a06211106203d2bb5f654cf192392a2d3dffcdd1537bfb63e",
      "blockNumber": "0x9df609",
      "gasUsed": "0xbdc0",
      "effectiveGasPrice": "0x10a4f4",
      "from": "0x490ce9212cf474a5a73936a8d25b5ef46751a58f",
      "to": "0x86ab43b140ab33ce9e93fb5c2a287f1eacf1db82",
      "contractAddress": null
    },
    {
      "status": "0x1",
      "cumulativeGasUsed": "0x1ae2127",
      "logs": [],
      "logsBloom": "0x00000000000000000000000000000000000000000000000000000000000000000000000000000000000000000000000000000000000000000000000000000000000000000000000000000000000000000000000000000000000000000000000000000000000000000000000000000000000000000000000000000000000000000000000000000000000000000000000000000000000000000000000000000000000000000000000000000000000000000000000000000000000000000000000000000000000000000000000000000000000000000000000000000000000000000000000000000000000000000000000000000000000000000000000000000000",
      "type": "0x2",
      "transactionHash": "0xb4e70a9af0ecb2c58a8e42ea85e47abd19a81e7d1898a105dfae33ab8947fb3a",
      "transactionIndex": "0x98",
      "blockHash": "0x39761b626bf24e8a06211106203d2bb5f654cf192392a2d3dffcdd1537bfb63e",
      "blockNumber": "0x9df609",
      "gasUsed": "0xbdb4",
      "effectiveGasPrice": "0x10a4f4",
      "from": "0x490ce9212cf474a5a73936a8d25b5ef46751a58f",
      "to": "0x86ab43b140ab33ce9e93fb5c2a287f1eacf1db82",
      "contractAddress": null
    },
    {
      "status": "0x1",
      "cumulativeGasUsed": "0x1aedee7",
      "logs": [],
      "logsBloom": "0x00000000000000000000000000000000000000000000000000000000000000000000000000000000000000000000000000000000000000000000000000000000000000000000000000000000000000000000000000000000000000000000000000000000000000000000000000000000000000000000000000000000000000000000000000000000000000000000000000000000000000000000000000000000000000000000000000000000000000000000000000000000000000000000000000000000000000000000000000000000000000000000000000000000000000000000000000000000000000000000000000000000000000000000000000000000",
      "type": "0x2",
      "transactionHash": "0x354a392cc7d742934cc606a970a76c7a3ded737082d231d044c66cc86f4b427e",
      "transactionIndex": "0x99",
      "blockHash": "0x39761b626bf24e8a06211106203d2bb5f654cf192392a2d3dffcdd1537bfb63e",
      "blockNumber": "0x9df609",
      "gasUsed": "0xbdc0",
      "effectiveGasPrice": "0x10a4f4",
      "from": "0x490ce9212cf474a5a73936a8d25b5ef46751a58f",
      "to": "0x86ab43b140ab33ce9e93fb5c2a287f1eacf1db82",
      "contractAddress": null
    },
    {
      "status": "0x1",
      "cumulativeGasUsed": "0x1afa93e",
      "logs": [],
      "logsBloom": "0x00000000000000000000000000000000000000000000000000000000000000000000000000000000000000000000000000000000000000000000000000000000000000000000000000000000000000000000000000000000000000000000000000000000000000000000000000000000000000000000000000000000000000000000000000000000000000000000000000000000000000000000000000000000000000000000000000000000000000000000000000000000000000000000000000000000000000000000000000000000000000000000000000000000000000000000000000000000000000000000000000000000000000000000000000000000",
      "type": "0x2",
      "transactionHash": "0x2c0ba5dcdd2c29277bd6c97d6c173371e551c305ceb74e15834275da9015abb5",
      "transactionIndex": "0x9a",
      "blockHash": "0x39761b626bf24e8a06211106203d2bb5f654cf192392a2d3dffcdd1537bfb63e",
      "blockNumber": "0x9df609",
      "gasUsed": "0xca57",
      "effectiveGasPrice": "0x10a4f4",
      "from": "0x490ce9212cf474a5a73936a8d25b5ef46751a58f",
      "to": "0x86ab43b140ab33ce9e93fb5c2a287f1eacf1db82",
      "contractAddress": null
    },
    {
      "status": "0x1",
      "cumulativeGasUsed": "0x1b06bbc",
      "logs": [],
      "logsBloom": "0x00000000000000000000000000000000000000000000000000000000000000000000000000000000000000000000000000000000000000000000000000000000000000000000000000000000000000000000000000000000000000000000000000000000000000000000000000000000000000000000000000000000000000000000000000000000000000000000000000000000000000000000000000000000000000000000000000000000000000000000000000000000000000000000000000000000000000000000000000000000000000000000000000000000000000000000000000000000000000000000000000000000000000000000000000000000",
      "type": "0x2",
      "transactionHash": "0x70c5fd17abb7c6bb3c2b9fda3cefded7d20acf34edb411aa7f4b387ed81839b0",
      "transactionIndex": "0x9b",
      "blockHash": "0x39761b626bf24e8a06211106203d2bb5f654cf192392a2d3dffcdd1537bfb63e",
      "blockNumber": "0x9df609",
      "gasUsed": "0xc27e",
      "effectiveGasPrice": "0x10a4f4",
      "from": "0x490ce9212cf474a5a73936a8d25b5ef46751a58f",
      "to": "0x86ab43b140ab33ce9e93fb5c2a287f1eacf1db82",
      "contractAddress": null
    }
  ],
  "libraries": [],
  "pending": [],
  "returns": {},
  "timestamp": 1772252041834,
  "chain": 11155111,
  "commit": "f33ce81"
}